:0400000085EF00F098
:10000800E747E747E747E747E747E747E747E74778
:10001800E747E747E747E747E747E747E747E74768
:10002800E747E747E747E747E747E747E747E74758
:10003800E747E747E747E747E747E747E747E74748
:10004800E747E747E747E747E747E747E747E74738
:10005800E747E747E747E747E747E747E747E74728
:10006800E747E747E747E747E747E747E747E74718
:10007800E747E747E747E7474200E747E747E747F4
:10008800E747E747E747E747E747E747E747E747F8
:10009800E747E747E747E7474200E747E747E747D4
:1000A800E747E747E747E747E747E747E747E747D8
:1000B800E747E747E747E747E747E747E747E747C8
:1000C800E747E747E747E747E747E747E747E747B8
:1000D800E747E747E747E747E747E747E747E747A8
:1000E8004200E747E747E747E747E747E747E74784
:1000F800E747E747E747E747E747E747E747E74788
:06010800FF008BEF8FF0F9
:10BFDE00007100C0028D9EFF81325C9EFF80C20008
:10BFEE00CF9E32819D52228D5222F800BDABF808B1
:10BFFE00ADF800F68EF63E25FF013A278EFF013A88
:10C00E002C8B3637F9803039E2E2AB2D8D324B8BEB
:10C01E00F6AB8EAEFF07FF013A4530308EF6FF01CC
:10C02E003A4D1202AD1202BDD4373DD5D5365CF86D
:10C03E00FFAB8E3E62F6388EFF013A67366E38F6EB
:10C04E008B76ABC300668EFF013A768B8BD4373D71
:10C05E00D5D59D52228D5222F800BDABF808ADF811
:10C06E0000F68EF63693FF013A958EFF013A9A8BC3
:10C07E003EA5F98030A7E2E2AB2D8D32B98BF6AB3F
:10C08E008EAEFF07FF013AB3309E8EF6FF013ABB2C
:10C09E008EFF013AC01202AD1202BDD4373DD5D586
:10C0AE003ECFF8FFAB8E36D5F6388EFF013ADA3E2C
:10C0BE00E138F68B76ABC300D98EFF013AE98B8B54
:10C0CE00D4373DD5D5FFFFFFFFFFFFFFFFFFFFFF7B
:10C0DE00FFF808AF8B52228D52222E7AC4C48B7673
:10C0EE00ABABC43316302930412F8F32598EFF013E
:10C0FE003229C4C4C4C4C4E2301D7A8B76ABCB01E2
:10C10E00182F8F32598EFF013241C4C4C4C4C4E209
:10C11E0030357B8B76ABC301302F8F32598EFF01BA
:10C12E003229C4C4C4C4C4E2304D8E8E8E7BC4C4C6
:10C13E00C4C4C4E2FF013A5C1202AD1202ABF802B3
:10C14E00AED58B52228F5222F808AF2E7BC4C48BF1
:10C15E0076ABABC43387309A30B22F8F32CA8EFF94
:10C16E0001329AC4C4C4C4C4E2308E7B8B76ABCB8E
:10C17E0001892F8F32CA8EFF0132B2C4C4C4C4C427
:10C18E00E230A67A8B76ABC301A12F8F32CA8EFF17
:10C19E0001329AC4C4C4C4C4E230BE8E8E8E7AC438
:10C1AE00C4C4C4C4E2FF013ACD1202AF1202ABF80E
:10C1BE0002AED5FFFFFFFFFFFFFFFFFFFFFFFFFFF9
:10C1CE00FFFFFFFFFFFFFFFFFFFFFFFFFFFFFFFF71
:10C1DE00FF9EFF81C201009EFF80C201719E324E02
:10C1EE008B52228D5222F880ADF800F68EAF2F2F93
:10C1FE008F7AFF013A218BF6332C7A302E7BE2AB0D
:10C20E008DF6AD323A8EFF07E230218EFF04FF012C
:10C21E003A3D7B8EFF0133431202AD1202ABD58B3A
:10C22E0052228D5222F880ADF800F68EAF2F2F8F4E
:10C23E007BFF013A608BF6336B7B306D7AE2AB8D10
:10C24E00F6AD32798EFF07E230608EFF04FF013AC1
:10C25E007C7A8EFF0133821202AD1202ABD5F881C9
:10C26E00BEF802AEF83FBBF8FFAB0BFC013ACDF8BF
:10C27E0000BEAE36AFF801BE3EA71E36A92E30B5B3
:10C28E0036AF1E3EB12E8EFCF833C19EFC80BEF83A
:10C29E0002AEF80CAF8EFF0133C52F8F3AC4F88073
:10C2AE00BFF800AFF8055F1FF84E5F1F9E5F1F8E31
:10C2BE005F1FF8005F1F8F3AE136EC7B387AC005BE
:10C2CE00000000F8FF5202FFFFC2030292FF01B20C
:10C2DE00C002F2F8005202CA02FBE2C00B8F9E733C
:10C2EE008E739F738F739B738B73F880BBF802AB47
:10C2FE004BBE4BAE9FABD402006072AB72BB72AF43
:10C30E0072BF72AEF0BE9FD59E738E738F739B738A
:10C31E008B73F880BBF802AB4BBE0BAE9FABD40059
:10C32E00058BBFF880BBF806AB0B3A73F880BBF8F1
:10C33E0007AB0B3A736072AB72BB72AF72AEF0BEEC
:10C34E009FC0030D6072AB72BB72AF72AEF0BE9F38
:10C35E00D5D5D5D5F880BFF802AF4FBE0FAEF88059
:10C36E00BFF800AFF80573604FF73AA3F84E73604D
:10C37E000FF732CFD41CF70A0D5052455353203CC1
:10C38E0043523E20544F20434F4E54494E55452E56
:10C39E002E0D0A00F880BFF800AF4FB00FA0E0D00E
:10C3AE00C0054ED41CF70D0A57454C434F4D452042
:10C3BE00544F2054484520313830322042415349A1
:10C3CE0043332056312E310D0A2843293139383165
:10C3DE00205243410D0A432F573F0D0A00C0053529
:10C3EE00FFFFFFFFFFFFFFFFFFFFFFFFFFFFFFFF4F
:10C3FE00FFFFFFFFFFFFFFFFFFFFFFFFFFFFFFFF3F
:10C40E00FFFFFFFFFFFFFFFFFFFFFFFFFFFFFFFF2E
:10C41E00FFFFFFFFFFFFFFFFFFFFFFFFFFFFFFFF1E
:10C42E00FFFFFFFFFFFFFFFFFFFFFFFFFFFFFFFF0E
:10C43E00FFFFFFFFFFFFFFFFFFFFFFFFFFFFFFFFFE
:10C44E00FFFFFFFFFFFFFFFFFFFFFFFFFFFFFFFFEE
:10C45E00FFFFFFFFFFFFFFFFFFFFFFFFFFFFFFFFDE
:10C46E00FFFFFFFFFFFFFFFFFFFFFFFFFFFFFFFFCE
:10C47E00FFFFFFFFFFFFFFFFFFFFFFFFFFFFFFFFBE
:10C48E00FFFFFFFFFFFFFFFFFFFFFFFFFFFFFFFFAE
:10C49E00FFFFFFFFFFFFFFFFFFFFFFFFFFFFFFFF9E
:10C4AE00FFFFFFFFFFFFFFFFFFFFFFFFFFFFFFFF8E
:10C4BE00FFFFFFFFFFFFFFFFFFFFFFFFFFFFFFFF7E
:10C4CE00FFFFFFFFFFFFFFFFFFFFFFFFFFFFFFFF6E
:10C4DE00FF7100C00B6592DD3BD40B96D40C4AD491
:10C4EE000B55C037590A4320524341203139383158
:10C4FE000D0A4241534943332056312E310D0A4322
:10C50E002F573F0D0A00D4818AFB57324EFB143A47
:10C51E0035ACF80CDD02F8835FBC8C5CD40B33D4E5
:10C52E002400DD9DFA033A62D41CF752454144596A
:10C53E000D0A00D41303D4100098FA01326ED5F808
:10C54E0081BBF8D0AB98FA023281D41100D424F911
:10C55E00304ED4120030629873F839309F9873D4ED
:10C56E0024818AFF01CB24938AFD043B948AFC3BF1
:10C57E00DD7BF8D5DD7EF81A5F2FF8FE5FF800AA96
:10C58E00D481FB19191919D41EF5198A592929298B
:10C59E00C0250098738873D42454FB023AF399BFD4
:10C5AE0089FF04AFFC08A9F808A84F591928883A42
:10C5BE00D989FF04A9D42F77D42F001DDD6112F085
:10C5CE00A8C01F35D4137331FB0A32FF9FD40AABB8
:10C5DE00D5A45245CD8067464F524D41D4B3244326
:10C5EE004CD381244E45D782045255CE8324454EDA
:10C5FE00C484644C45D485665052494ED4866350EB
:10C60E00D28665474F54CF876349C68866494E50D8
:10C61E0055D489654C4953D48A66474F5355C28BBE
:10C62E00675245545552CE8C25574149D48D64449A
:10C63E0049CD8E64464FD28F654E4558D49066468E
:10C64E00495845C49125504F4BC592644445C793F4
:10C65E00645241C494645354D19567444546494E3F
:10C66E00D4966650534156C59766504C4F41C49868
:10C67E002644454655D39924454FD09A6544415496
:10C68E00C19B65524541C49C28524553544F52C5D7
:10C69E009D24454FC49E24434CC49F66445341562B
:10C6AE00C5A066444C4F41C4A166454E494ED4A226
:10C6BE0067444953494ED4A366444D4150D4A464B3
:10C6CE005449CEA565544F55D4A66654524143C520
:10C6DE00A76543414CCCA8644449CEA965444F5547
:10C6EE00D4AA644F55D4AB66434C4F53C5AC644289
:10C6FE0059C5AD65455849D4AE6557464CCEAF6564
:10C70E0052464CCEB06952454E554D4245D2B1655A
:10C71E00454449D4B2045349CED404434FD3D50231
:10C72E00A8D6044154CED8044558D0D9044C4FC78E
:10C73E00DA045351D2DB04494ED4DC05504545CBC7
:10C74E00DD044142D3DE04524EC4DF045553D2E021
:10C75E0005494E55CDE105464E55CDE3044153C333
:10C76E00E4044C45CEE502DCE6045347CEE7044D27
:10C77E004FC4E804494ED0E9644E4FD4EA0350C981
:10C78E00EB05465641CCEC044D45CDEE045153D449
:10C79E00EF0345C6F064414EC4B564584FD2B6633C
:10C7AE004FD2B705434852A4B9054D4944A4BA0225
:10C7BE00DEBB045441C2BC033EBDBD033CBDBE0343
:10C7CE003CBEBF65535445D0C06354CFC102ACC20A
:10C7DE0002BBC302A9C465544845CEC502BCC602FD
:10C7EE00BEC702ABC802ADC902AACA02AFCB02BD18
:10C7FE00CC02BACDFFC0365FF845BED409F59EA374
:10C80E00D40AA8FB11323AD4137339DD9EBC52F808
:10C81E0083A8F8003058D40AA8FB123250D41373F0
:10C82E003ADD83BC52F89AA80FACFD00AADDBB77A7
:10C83E00BAD40AA8BED40AA8AE8A528EF59A529ECF
:10C84E00753376D4137332D40AA85C1C2E9EFBFF6C
:10C85E003A7688A3F883BC52F800AC4CF4DD01BCE8
:10C86E00524CF4DD030CDD04C014D0D414D0DD839F
:10C87E00BC0FAC524CF4AA4C52DD8374DD198ADD28
:10C88E001ADD84524CF4AADD83524C74DD128ADD1B
:10C89E0013DD84524CF4AADD83520C74DD148ADD50
:10C8AE0015D5D40DE2D40AA8FB0A32D1FB193AF4FD
:10C8BE00DD9DFAFB2F5FD41CF7454F460D0A00D4C1
:10C8CE0012EA2626269FD5DDACD41FB8DD80C01F08
:10C8DE00B8DD8F730F73F8C6DD10935F9FBEF8003F
:10C8EE00AED40D681272DD10F05F8EFB80C2122185
:10C8FE00D424F9A7AE9EB7F820D41FB807D41FB81A
:10C90E0047FB0D1E3A2B2EA7F80AD41FB8D4818AE6
:10C91E0052DDCFF332D9DD80F33A57873A51F82002
:10C92E00303927D408F6303CDDAEF332B8DDCEF325
:10C93E003276DDB5F332790FF3327C1787528EF7EC
:10C94E00333C27DD803039F89CC8F81FC8F89DA805
:10C95E00D41400321F52AA87AC88FB9D329A87F4FA
:10C96E00AE4E5717FB0D3A902E8CA788A3C48EF4AB
:10C97E00A70E578E528CF332AC2E2730A0F8D0A7CC
:10C98E00475E1E2A8A3AAF301FD41000F8D0AB9EF5
:10C99E00BBD41200C013CCFB0A32D9FB073AD18E9E
:10C9AE0032D98EFB8032D99F5E1ED5DD81BB0FAB97
:10C9BE001B0B52DD86F52B4B52DD857533F32BD4D5
:10C9CE0019BD30DF2BD5D40BE560DD9DF9042F5F4B
:10C9DE00D5C4C4C4C03500F829C8F824AF8E739EE0
:10C9EE00738C739C73F881BCF8A9AC0CBEF803BCB5
:10C9FE00F880AC8FA3D40337302D9FD4030D127261
:10CA0E00BC72AC72BEF0AE9FD53F3E373AFF00D53A
:10CA1E00C03550F85DBED40C6C9EA3F811D40AAB91
:10CA2E00F883BAF800AAAEDD83FF82BE3093F81207
:10CA3E00D40AABDD83BCBA0FAC52AADD9AF7AE5C5A
:10CA4E001C9A52DD9977BE5C1C8A52DD93F75C1CF2
:10CA5E009A52DD92775C1C8A52DD95F75C1C9A52D5
:10CA6E00DD94775C9ED40AAB8ED40AAB4AD40AAB63
:10CA7E002E9EFBFF3A9BC00C27F8C1C8F8D0AF8C96
:10CA8E00739C738A739FAAF881BCD412DFE3610290
:10CA9E008FA3F862ACD403829FAAE3610133E63020
:10CAAE00DDF865AC8ABFD40381E3610133E6D41CA3
:10CABE00F74552520D0A00D40C80128ABF72AA7228
:10CACE00BCF0AC9FD5D424818AFA0132FE7BD57A94
:10CADE00D5D42454FB033A2F19191909AE89FF072F
:10CAEE00A9D41296F960DD40F82ADD44935F2FF841
:10CAFE00C05F2FF8225F8E52C081C089FF04A9D576
:10CB0E00D4137335DD81DD03BCDD82ACFC05DD04A1
:10CB1E00F8FF5CDD3D1C5C1CF8035C1CF8845C1C9F
:10CB2E00F80D5CF800B8D423F3DD1CDD1DDD33F801
:10CB3E0041DD3CC014D0F824B4F81AB5F826BDF87F
:10CB4E0002ADF882B9F870A9F8E8A4F8F2A5F8FFDA
:10CB5E00A2B8E2F8FFB2C002F2328F92FF01308427
:10CB6E00F805B3F805A3D3F808DD00F87FDD2AF841
:10CB7E0003DD2BF820DD2CF80CDD2DF813DD2EF85F
:10CB8E0044DD35F849DD36F843DD4EF801DD4FF86A
:10CB9E0001DD4DD59873D42454FB023AE1D412969C
:10CBAE00F968DD25D41EF519D481A559292929C086
:10CBBE002500D41373340BFB0D32F2FBC032F2D4CA
:10CBCE00248138AAF881BF46AFF8005F1F8AF6F8B5
:10CBDE0040C7F8805F1FF8005FD5D3E29673867367
:10CBEE0093B683A646B346A33009D396B386A3E283
:10CBFE001272A6F0B69F3019DD9DFA083247F8136F
:10CC0E00D40AABF802BEF880AEF800D40AAB2E9E62
:10CC1E003A38DD9DFAF72F5FC00CF29EDD29F864DD
:10CC2E00AAF808A8F80CBAF881BFF88AAF4A5F1FB5
:10CC3E0028883A5CD5D40A09D5D40A06D5D40BE592
:10CC4E0063DD9DFA083279D40C27DD9DF9082F5F3C
:10CC5E00D5F824B4F8E8A4F81AB5F8F2A5D51A4A0E
:10CC6E00D41FB8F824C01FB8C4C4C4C003838B73C8
:10CC7E009B739CBB8CABD419BD2B9BBC8BAC127223
:10CC8E00BBF0ABD58B739B739CDD058CDD06D40995
:10CC9E00DA30A94A59194A59194A59194A592929AA
:10CCAE0029D58A739A73D424819ABC8AAC1272BA2B
:10CCBE00F0AAD598FA0432ECD425F730EF1DDD4BEF
:10CCCE00C00F1CF806DD10F80A5FDD9DFAFD2F5F20
:10CCDE00D522F923F30B33157613C9180028012436
:10CCEE002A253322740D6821B721AB18DA1C0017E0
:10CCFE0000217B20E723C134F734FA0AF42BD80A3B
:10CD0E003F082427ED24B617FB326C17EF24B91415
:10CD1E00D00A4208272AE1252D12F812EA0CF22336
:10CD2E00E01E6B14B914A20B000C270C9734AF0C39
:10CD3E006C09F51900090033F0DD81BA4FAA4FBC1A
:10CD4E000FAC2C0BFB0D3297FBC03297D40CD1D409
:10CD5E000CB38CAA9CBAD40C9D0BFBC23A971BD475
:10CD6E000CD1D40CB3D40C9DD424F9D40DF8C0241A
:10CD7E00F91F031D70233223322000200321F31DDF
:10CD8E000020062009200C200F15001CDF2ED91BB9
:10CD9E00001E6E1E031F0021001C9123040FCA1BD0
:10CDAE009905C20BC313D81BE21C8E137322AC055C
:10CDBE0086058CFC00D40A0333EAD5D4137300DD48
:10CDCE00AF32F7F820D41FB8D5D41EF5F801DD2FF9
:10CDDE004A52FBFF3A0D0AFBFF3A0D2929D502D420
:10CDEE000CC9D431FED423631A30301AD41FB80ABA
:10CDFE0052FB0D32EA02301AF820D41FB8F800DDCB
:10CE0E002F0AFBCF3A4CF8221AD41FB80A52FBCE87
:10CE1E003244023037F8221AD41FB8302C0AFBE6FF
:10CE2E003A68F85C1AD41FB80A52FBB83260023066
:10CE3E0053F85C1AD41FB830270AFBD03A80F8405A
:10CE4E001AD41FB8F804A84A28D41FB8883A7630E6
:10CE5E002C0AFBE23A8FF8231AD41FB8F802307569
:10CE6E000AFBD13A9ED40DEE1A4AD41FB8302C0AC2
:10CE7E00FBD73AABD40DEED40C8D302C0AFBD23A44
:10CE8E00BC1AD40CC2D431FED42363302C0AFBB4AA
:10CE9E003ACC5919591A1A1AD40CC730B40AFBD302
:10CEAE003ADE1AD40CC2D4310069D415C5302C0A1E
:10CEBE00FB0D32EAD4147F322C301E9A529CF33A78
:10CECE00F68A528CF3320CD424F91AD40DE2C00D2A
:10CEDE00F898FAF3B80B52FBC93A121B8373305E03
:10CEEE00C00CE2F8C8F33A181B8373305E0B52FB8A
:10CEFE00B53A2A1B8373305ED410B2F8B7F33A37C3
:10CF0E001B8373305ED410ACF8B6F33A441B8373B4
:10CF1E00305ED410AFF8C8F33A511B8373305EC045
:10CF2E0014E7F8C9F33AC91B8373305EC010EF8360
:10CF3E007330820B52FBCA3A701B83733082C0115E
:10CF4E00EFF8CBF33A7D1B83733082C013EF12F0F0
:10CF5E00FC03A38373309B0B52FBBB3A961B83736C
:10CF6E00309BD4316C308612F0FC03A3F80DBA0B53
:10CF7E00FFD033A7D4137309F881BFF8A4AF0BFE0B
:10CF8E00AA4A5F1F0A5F1BD481A398FA0CFB0C3AC6
:10CF9E00C4D413730712F0FC03A3D589FC04A9D4DF
:10CFAE001EF5F800BFF808AF4BFB3032E4FB013240
:10CFBE00E8D4137326FC0030EAFF009F7EBF2F8F4C
:10CFCE003AD74BFBB83AE0199F5929292998C01F27
:10CFDE00381DDD1D898C00F8D0A7F881B7BCF8008C
:10CFEE00AC98FA013A1ED422DE321E98F902B8F835
:10CFFE0006B9F800A94C57FB2032242C9CBA8CAAF7
:10D00E0007FB0D3249FB23C226FAFB0F3A50F8807C
:10D01E0057171C0C5717FB0D3A4112D2D5D4137368
:10D02E0016FB03CA1464F8CF57171C4C5717FB0D89
:10D03E00324CFB2F3A5AF8CE275717301EFB1C3AAC
:10D04E0081F8D057171CF804A84C571728883A783F
:10D05E003024FB633A8EF8E257171CF8023077D46F
:10D06E002200D422DEC226FA4C524CFB243AA4F8FB
:10D07E00D7571730A92CF8D15717023068F8D5C8F2
:10D08E00F8D8C8F8DB7398FA083AC889FF04A9D40F
:10D09E001E2089FC04A9D41E2019191909AF89FF75
:10D0AE0004A912F0E9A38FF1C88FF3C88FF273F8B9
:10D0BE000073735998FA083AEBD4210AF81CA6D5D6
:10D0CE0098FA0432FAD430FD4B30FD1DDD61C00FED
:10D0DE001CF882B9F870A9303D4BDD084BDD091BF9
:10D0EE0098FA40323D89FC04A9D41EF5DD88591901
:10D0FE000F59292929D41CF75452205B00D431FE34
:10D10E00D42363D41CF75D0D0A0089FF04A998FA95
:10D11E00F3B8F881BAF8A0AAF80DBC0BFBD13259BE
:10D12E000BFBD732590BFDB43BA04BFEAC4C5A1A3D
:10D13E000C5AD4819FD40DE2DD983295D4252DDD85
:10D14E0096BA4FAAF8005F8B739B73D422AC3283CE
:10D15E00D413732BD42446D4110898F901B8D42AC9
:10D16E00F71272BBF0AB4BFBCD323D2B4BFB0D32AE
:10D17E00A4D413732A98FA013A08D5AB0BFBFF3AE5
:10D18E00B1D50BFA1F528BACF4AB9BBC7C00BB220F
:10D19E004B520AF332C81230AB121A4CA8FA203294
:10D1AE00D3D41FB888FA1FAB2B4CFA7FD41FB82BE1
:10D1BE008B3AD888FA4032ECF820D41FB8F801D553
:10D1CE0098FA0432FAD430FD5130FDD42F00C00F3E
:10D1DE00624BDD050BDD06D4223B320ED428D6F889
:10D1EE00D2ABF881BB0BFB0D326DD419C0ACFF9FD7
:10D1FE003B25D4137327D409DA9873DD83BAB80F9D
:10D20E00AAA88C5288F4A8AF987C00B8BF2A2F0A1F
:10D21E005F9A529BF33A3C8A528BF33A3CF8D0A772
:10D22E00F881B7475B1B475B1B2C2C8C5B1B2C4779
:10D23E005B1B2C8C3A5E88DD04985F12F0B8DD81A2
:10D24E00BC52F801ACDD83F75C1C0F5CD414D0D457
:10D25E0022AC3293D41CF73C4D454D205741524ED3
:10D26E003E0D0A00C012C589FF04A9F800AF493A65
:10D27E00C1493AC1493AC149528F3AB40232B061FA
:10D28E0022F801309CF807F1FB073AC189FF08A983
:10D29E00F0D5D4137333D41F6032CBD52A2A2AF893
:10D2AE00D25A1AF8005A1A5A1A1A1AD41F7030C8BB
:10D2BE00F80CB4B5F80AA4F81AA5D5F809DD0CF8DF
:10D2CE000A5FDD9DFAFE2F5FD5D424818AA09AB025
:10D2DE00D5D424F998FA01AC320CF83FC8F83A527A
:10D2EE00DD9DFA03BC3A1A02D41FB8F881B7F800D4
:10D2FE00A7D4818A528C3A33873A33F80DF3321A17
:10D30E00FB2D321ADDABF33200DDAAF33A4787323A
:10D31E00202707D4818E3020DD80F33A55873203E3
:10D32E0027D408F63020025717FB0D3A66DD1B9CFA
:10D33E003A72F80AC01FB887FB603A20DD80D481AC
:10D34E008E304FD5F802ADF826BDF882B9F874A923
:10D35E00D40C27D424F9D41EF5190659292929D419
:10D36E0031FED41CF745525220434F44452000D481
:10D37E00236398FA0132C6D41CF70D0A4154204C8F
:10D38E00494E452000D41EF5DD8859190F5929291B
:10D39E0029D431FED42363D412EAD424F9DDBBB2EE
:10D3AE00F8FFA2D4252DC0054E9873D434D2F800C0
:10D3BE0059195919591909FBFF59292929C025004D
:10D3CE0098FA0432FAD430FD5430FDD42F77C00FC2
:10D3DE00629EBCF8D0AC88FB9D3A0F8EFF5F301377
:10D3EE008E5287F7FBFFAAF8001A1A3363D4818A8C
:10D3FE0052DDAEF33260DDCFF33263DD80F33244C3
:10D40E00DDAAF33254025C1C2A8A3A1C2C1ADD80E7
:10D41E00D41FB8301C8CFBD03A4DDDAC303F2CD431
:10D42E0008F61A301C8CFBD0321C2C0CD41FB830D2
:10D43E004E8CFFD0D5FB7ECA106CF8E657171C4CED
:10D44E005717FB0DC2104CFB513A6EF8B8C010675F
:10D45E008C739C738B739B73F806BBF800D411AA64
:10D46E003A95D41373181272BB72AB72BCF0AC88BF
:10D47E00FA80D5DD9DFA083AACD41373292F0FF933
:10D48E00025FF8F7DD10F8055FD5DD9DFA043AC3AB
:10D49E00D41373282F0FF9015FF8D1DD0CF8255F37
:10D4AE00D5DD84FC09AADD837C00DD12DD14DD19D7
:10D4BE008ADD13DD15DD1AD598FA0432F2D430FD6B
:10D4CE004E30F51DDD20C00F1C5FDD9DFAFD2F5F78
:10D4DE00D59873D434CF98FA043260093260AFFA1B
:10D4EE008032681909FA80BA298FFD98AFAA3B607D
:10D4FE00FF183363F800BF198F323F2F09F6591901
:10D50E00097659190976593B3BF801BF292930276D
:10D51E008A32522A191909FE5929097E5929097E7A
:10D52E0059303F299A32609F3260D41FE6D430FDC5
:10D53E004BC01BC93268C01BDD1909FA8029AF1D0B
:10D54E00DD8E8F3A59306098F901B8F8D0DD07F8C2
:10D55E000DDD50D417EF0BFBC83291FBC532B6C0B0
:10D56E00242AD41F603AB64ADD051F1F0A5F2A2AF5
:10D57E002A2AD4223B32C1F8B45A1A9B5A1A8B5A11
:10D58E002A2AD41F703094D414D0DD81BB0FABC0C7
:10D59E002436D413732E1DDD1D87888A8C8B8E0046
:10D5AE00ABF8E0AEDDBDA7BBFF063BDEF806A79FDE
:10D5BE00BABC99BEF8C0AA4AFB0B32F0F82DD4348F
:10D5CE00F14A3AFAA8D434EFC0167EF8CAAA4AA88D
:10D5DE00F8005288320C02FC0A522830020AF4A8D3
:10D5EE00DDC9FB0B3A1C88FF0733ED30438852FF31
:10D5FE00043B279BFF0733EDF8C8ACF7AAFFC13BEE
:10D60E00390A5C2A2C8AFBC03A30F8005C2C8CFB61
:10D61E00C03A39A8875288F4B7FF073B4FF806B7D0
:10D62E0097FCC1AAACF805520AF4FF0A3B71F80048
:10D63E005A2A8AFBC0326AF80130561AF8015A1873
:10D64E0030750AFC015AF8005C1C8CFBC93A75F85F
:10D65E00C1AA88328B284AD434EF30818AFDC9A8FA
:10D66E00F8C8AC0C3A9F282C8C528AFF01F33A92E0
:10D67E008832CADDBDA732CAF82ED434F18832BA48
:10D68E008732BA27284AD434EF30AC9BFBFF32CF17
:10D69E008732CFF830D434F12730BF9BFBFF3AA747
:10D6AE008B32E8F845D434F1F8C9AA4AFC20D434B8
:10D6BE00F14AD434EF0AD434EF12D2C030ABF8C6EC
:10D6CE00AAF806A80A3AFA282A30F3F8C1AAAB300B
:10D6DE00A298FA01320AD422AC320ED413730BAED6
:10D6EE004BAF1B0B2BFBD63227D4180A2C2C2C8CB1
:10D6FE00739C734BFBC1322BD413730CD40F044B9E
:10D70E00FBC03A46D40F0498FA08323E093041194C
:10D71E000929FA80AE3049D41FE58B739B738E7343
:10D72E0098FA0C521DDDD629292929121DDDD6891C
:10D73E00FF04A9D4116482AA92BA1A89FC04A9F82A
:10D74E0008AF4A59192F8F3A714A5298F1F901B818
:10D75E004AAE1A1A4ABC0AAC2A2A2AF804AF4C5905
:10D76E00192F8F3A8D89FF04A998FA0832A21DDD70
:10D77E002030A6D430FD4E1919192CF804AF095CCF
:10D78E00292C2F8F3AAD1998FA0832C51DDD611D6F
:10D79E00DDC4AF0930CDD430FD4B49AF0929FA8035
:10D7AE005289FF04A98F32DB8EF33AE14ABB0AABF2
:10D7BE003062F810AF122F8F3AE4F0B6F864A6D5A7
:10D7CE00DD82DD32DD81DD31F8005FD5D419C02B6D
:10D7DE00D54BAFFBD73A0AD419E1D58FFBD1321313
:10D7EE00D41373154BA8FF41FEFEACF882BC0BFBA5
:10D7FE00D63A27D41A0030A7FB043AA797731B4BCF
:10D80E003A374B3A374B323BD413733B4BB7D42199
:10D81E003F3AA4877397738A739A73DD99BA0FAAE6
:10D82E00FC06AF9A7C00BF5292F33A5FD41373306A
:10D83E008A528CF5A79A529C75FC01B70A5F2A2F63
:10D84E0027973A6BDD952FFC065F2F0F7C005F2F1D
:10D85E000FFC065F2F0F7C005F8FFC08AF0FFC06DE
:10D86E005F2F0F7C005F1272BA72AA72B7F0A78890
:10D87E005C1C975C1C12F0B78852DDBCF53BB3986C
:10D88E00F90430B698F908B886FBBD3AC296FB1A71
:10D89E003AC2D54BFBCC3A0FD40F04495C1C495C01
:10D8AE001C495C1C095C89FF07A9D5D434D2D42449
:10D8BE0084D40DE2F8F0AF2F8F3AE69AC68AC42AC6
:10D8CE003AE0D51B4B52FBCE3AFAD502D41FB830F4
:10D8DE00F3987387730BFBD23A0ED424818AC8F85F
:10D8EE000AA7DD99BA0FAADD81BC0FACF800BEAE57
:10D8FE004C5A1AFBFF323C4C5A1A0C528CF4AC9C0C
:10D90E007C00BC9A5292F33A1FD413733FDD81BA56
:10D91E000FAA0AFBFF325F8E5287F4AE9E7C00BECA
:10D92E005A1A8E5A1A0A528AF4AA9A7C00BA3041AE
:10D93E00D41F603A94A8B8DD99BC0FAC885287F416
:10D94E00A8987C00B84C52FBFF32B90AF332811C06
:10D95E00306B1A0A522A4CF33A6B985A1A885A1A92
:10D96E00D41F7030621272A7F0B8D41EF59E5919EA
:10D97E008E59292929D431FED42363D41CF7204390
:10D98E004F4D502042520D0A00D5D41373401B1B2D
:10D99E001BF803A84B18FBD232D1FB0132D1FB6727
:10D9AE003ADB1B1B1B1B1818181830C3FBB93AC3E4
:10D9BE0088D58E734B73D41ED5734BFBCC3AFCD4E7
:10D9CE001D0D1272AEF0A8D4205312AED5D413731F
:10D9DE00228A739A7398738873D42454AFACF80068
:10D9EE00A8493AB6493AB6493AB6883A2009BC30FF
:10D9FE002209AC32B689FF07A92F188F3A1089FC7D
:10DA0E0004A912F0A8DD92BA4FAA4FB70FA79752EA
:10DA1E009AF33A4987528AF332B6475288F3325E06
:10DA2E00475247BF87F4A79F529774B7E2303D170E
:10DA3E0017D41EF5199C5919521707F73BB627D460
:10DA4E001EF5198C5247F73BB62C8C5919D41EF57E
:10DA5E00190759292929272727D42F001DDD201919
:10DA6E001949BC09AC89FF07A98CFEAC9C7EBC8C05
:10DA7E00FEAC9C7EBC87528CF4AC97529C74BC124C
:10DA8E0072B872BAF0AAD5D4137302D418008B737D
:10DA9E009B738C739C738EAB9EBBD40F040BFBC21B
:10DAAE003AD41B30DD0BFB0D32DDD41373138BAE6A
:10DABE009BBE1272BC72AC72BBF0AB98FAF3B8C0DC
:10DACE0018CAD3BFE296B386A31242A602B69F30FF
:10DADE00F198738A739A7389FC04A9D41EF5F836EB
:10DAEE005919F8195919D41EF5F8355919F88D59CF
:10DAFE0019D41EF5DDBE59190F59292929D42F0025
:10DB0E001DDD20191949BADD3E09AADD3F29292953
:10DB1E00D41EF50BFBD63A748A59199A592929291C
:10DB2E00D434D299BF89FF04AFFC08A9F808AA4FD4
:10DB3E0059192A8A3A5E89FF04A9D42F77D42F0067
:10DB4E001DDD61309098F904B8298A5919FA80AF11
:10DB5E009A592929F880598F3290D41FE6D430FD76
:10DB6E004E1272BA72AA98F1B8D59873D434CF986F
:10DB7E00FA0432B70932DD190929FA80AFD41FEA47
:10DB8E008F32C9D425F730C91DDDC432DD09FA80C4
:10DB9E00AFD41FEA8F32C91DDD4B98FA043AD1C0BB
:10DBAE00250012F0FA0832DCF0B8D41E20D51DDDA7
:10DBBE008E30C989FC07A9E9F8CF73F80F73F849BD
:10DBCE0073F8825998FA083AFD98F904B8D5C01E30
:10DBDE00204BFBD13209D41373034B73D42454AFAF
:10DBEE002FF800B7F801BAD41C8409AAA789FF0739
:10DBFE00A98F323BFB013A05D41C8409BA19D42FE4
:10DC0E0000D41C8749B709A789FF07A987FEA797E4
:10DC1E007EB7330587FEA7977EB733051717DD92BC
:10DC2E00BC0FAC12F05C1C875C1C975C1C9A5C1CD5
:10DC3E008A5C2787528CF4AC97529C74BC33055285
:10DC4E0092F533058CDD13DD1A9CDD12DD194BFBCD
:10DC5E00C232002BD5493A05493A05493A05D5F85D
:10DC6E00BFC8F8A4BF98739F734BFBD6CA2300D4CA
:10DC7E001D0D12F0A389FC04A9D41EF5AF19F8816D
:10DC8E00BF0F5929292909B84BFBC43A9BC01BC9A0
:10DC9E0098FA01C222791DDD1D8B00D41000F8D038
:10DCAE00ABDD079FBBD40F00F80DDD5012D230B79D
:10DCBE009873D434D25919591949BF09AF0F59293C
:10DCCE00F800592929C025004632FFD41FB830F775
:10DCDE00D596FB813A0D86FBA23A0DC019E11DDDEA
:10DCEE001D878C8E00F881B7F800A74B52FBCF3200
:10DCFE0045FB183A674BA8D41ED5AED423933A37BA
:10DD0E00D4137336D413734287FB8032334A5717BA
:10DD1E00FB0D3A37305687FB8032334B5717FBCE0D
:10DD2E003A4527F80D57170BFBC83A5F1B27301AD9
:10DD3E0096FB30326612D2D5FB6D3A2FD4301330AB
:10DD4E005696FB813A7E86FBA23A7E2BC018001DAA
:10DD5E00DD1D878C004BA8FF41FEFEA70BFBD63ABC
:10DD6E0095D41A0030A3FB043A9ED4249730A3F81E
:10DD7E0082BC87AC89FC04A98CAF9CBF1DDDEB1265
:10DD8E00D28852DDBCF53BBBF80430BDF808AF9825
:10DD9E00FA0C5232D38FF23AD38FFB0432D0C02119
:10DDAE000AC01E208F5298F1B8D58B739B738EAB21
:10DDBE009EBB4BFBFF32F21B1B4BFB9B32F6D41967
:10DDCE00C030E1D41373208BAE9BBE1272BBF0AB8E
:10DDDE00D5F80FC8F80AAF98738FA3D434CF30128A
:10DDEE00D40F0098FA04321AD41E2012F0F908B893
:10DDFE00D5D42EE97309FA803A2E1DDD8E12D5097F
:10DE0E00FF98336749FD98AF09F9805909F65919FA
:10DE1E000976591909765929292F8F3A3B293B5CE6
:10DE2E0089FC04A9D41EF5D41FF21DDD20F800597B
:10DE3E0012F032661DDD4BD5D413730FF801C8F8FE
:10DE4E0000BF987388738D739D731DDD1D8A8C8E34
:10DE5E00009F73D42454191952DDA9BEF8A4AFF84B
:10DE6E0001F332ABFB0332A3FB013AD149BA09AA43
:10DE7E0089FF05A949B809A889FF05A9495F1F09A6
:10DE8E005FD481A38859299859298A59299A5912F8
:10DE9E007232C689FF04A9D21272BD72ADF0A8C04B
:10DEAE002500D41373240BFBD63AEE1B987388739C
:10DEBE00D424811272A8F0B84BFBC43AF18AD5F87B
:10DECE0000D5D4137323F800591959195919592922
:10DEDE00D5F800C8F801AF987389FC04A9D41EF5D3
:10DEEE008F3A1819F801A8301BF802A84BD41F441A
:10DEFE00FEFEFEFEAF4BD41F44528FF159192888F7
:10DF0E003A1B2929292912F0B8FA043A4198F9083E
:10DF1E00B8D5C0210AFF30523B5CFF0A3B5AF810BD
:10DF2E00F7335CF807F552FF10335C02D5D4137348
:10DF3E000EDD81BA0FAAF800AEBE4AFBFF32B31A4D
:10DF4E001A4AFBD2327DFB01327DFB673A831A1AE5
:10DF5E001A1A3070FBB93269FB8ACEFB0CCEFB2548
:10DF6E00CEFB0CCEFBA33A700AFBD232A40AFBB452
:10DF7E0032A41E30701A1A1A1A1A0AFB0D32B5FB89
:10DF8E00C03AA1C8F8012A2AD552DD80F332D8F85A
:10DF9E000DF332DEDDADF332DEDDACF332D2F8E07E
:10DFAE00F232E0DD9BFC0130DEDD9BFF0130DEDD79
:10DFBE001B02D4818ED52B89FC04A9D41EF598FAA8
:10DFCE00043AFA19F80159292929D52929F881592C
:10DFDE00D5F824C8F82AC8F830C8F836C8F83CC8AE
:10DFEE00F842AF98738F73D434CF98FA083221D495
:10DFFE00210A12F0A3D43100573046D431005A30E2
:10E00E0046D431005D3046D43100603046D4310004
:10E01E00633046D431006612F0B8FA083250C01E92
:10E02E0020C0250AD423933274528AF4AF9A7C000E
:10E03E00BF2A2A2A9F529CF33A6F8F528CF3327466
:10E04E004F5A1A3063AFACF881BF1C4FFB0D3A79B3
:10E05E00AF885A1A8E5A1A8C5A1A9A5292F3329CC6
:10E06E004F5A1AFB0D3A898ADD1A9A5FD5D413736B
:10E07E00304B73D41ED573D41303F881B7F801A7B0
:10E08E0007FB243ADF8B739B73D41000F8D1AB9748
:10E09E00BB4BA8D41ED5AED423933ACFD413732141
:10E0AE001272BBF0ABF800A74A5717FB0D3AD7A771
:10E0BE001272AEF0A8C020530BFB0D32FCFBC03227
:10E0CE00FCD424818AFF0633FC8ADD3DD5F8FF306F
:10E0DE00F99873D434D212F0F904B81DDDC4323E6F
:10E0EE008C739C73D42EF6F67652F8A0AF09FA8094
:10E0FE003A272F1DDD39301C19194959292949593B
:10E10E00292949FA7FF159298F591272BCF0ACD5E1
:10E11E001DDD1D8E00DD84FC09AC2F2F0F7C00BC95
:10E12E00DD94BE0FAE8C528EF33A609C529EF3324B
:10E13E007688524CF33A6C97520CF332731C1C1CBB
:10E14E001C1C30541CF801AF12D28FD50BFBD13AE8
:10E15E00AB1B4BA80BFBD232942BF882BC4BFF416E
:10E16E00FEFEAC3097D4249782FC13AA927C00BAA0
:10E17E004A529CF33AB30A528CF33AB31212127209
:10E18E00A6F0B6D5D413731A0BFBB43ACD1B4BBF06
:10E19E004BAF1B1B8B739B738FAB9FBB30D7D424A2
:10E1AE00788B739B73D42446D422AC32E0D4137391
:10E1BE000DD4110898F901B81272BB72AB12F0B6F9
:10E1CE00F864A6D5D40F044BFBC432FFD413731CD2
:10E1DE00D509FBFF323A49A8FA1FAF4C52FB203249
:10E1EE000A49FA7FF32F32269ABC8AAC8F5289F4F1
:10E1FE00A9997C00B930002949FA80320A4957178B
:10E20E0088FA803A37F81EC8F842A6D5DD81BB0FD2
:10E21E00AB9B52DD83F33A4D8B520FF332684B5268
:10E22E00DD85F33A5A0B520FF332702B1B1B0B5238
:10E23E008BF4AB9B7C00BB3040DD81BB0FABF80099
:10E24E00D52BF801D598FA013A7DD41373110BFB37
:10E25E00CF3A85D418F2DD87AE9FBE0BFBD73A932B
:10E26E001BC020A00EFB0D3A9ED40562F8D0AED492
:10E27E001ABA4B52FBC232932B8EDD07D589FC04A2
:10E28E00A9D41EF592FF015919825919D41EF519F8
:10E29E00DD9A5929DD995929291DDD6109FA80BFB9
:10E2AE0096FB813AD898C0250389FF04A99FD50C07
:10E2BE00FF3033E7D413731BFF0A33EEF800D5FF9C
:10E2CE00073BE3FF1A33E3F801D54BFB0D3AF92B6D
:10E2DE00D5D413730198734BFBD63A004BFBD73A48
:10E2EE00001DDD1D8E8C004BA8D41ED5AED42393FD
:10E2FE00C21D2FAF12D289FC04A9D41EF5192F8F7F
:10E30E00C01CB189FC04A92B4B528BAF9BBF1DDDEA
:10E31E00EB1B1B1B1B98FA083A56F8D3F33251C06D
:10E32E00250798F904B8D5F8D2F33255D41E2098A3
:10E33E00F908B8D51DDD1D8C8E00F881BC99BEF88C
:10E34E00E0AEF8C0AC4CFB0D3A7EF82DD434F18C17
:10E35E00FBCB32874C327E2C4CD434EF8CFBCC3A38
:10E36E0087C016E8DD92BA4FAADD99BC4FAC9A521F
:10E37E009CF33AA98A528CF332C0EA88F31A3AB166
:10E38E008EF31A32BF8AF4AA9A7C00BA1AE2309D32
:10E39E004AD5D42454FB0232CCD413731D19191947
:10E3AE00095289FF05A949BF09AF025F89FF07A975
:10E3BE00D5D424818A3AEE9A3AEE98FABFB8D59817
:10E3CE00F940B8D5DDADD41FB8DDCDBF2F9F3AFBD8
:10E3DE00D598FA80B8F824BAF821AAF824B1F8D161
:10E3EE00A1F881BFF89DAF4A1F5F8FFBA63A16DDDD
:10E3FE0018D583D40000D5D40000D50BFBB43A3E1B
:10E40E001B4BBF0BAB9FBB1212F0B6F8A4A6D5D414
:10E41E0024433036D424788ADD069A5FD4223B3AE0
:10E42E003DD413732E8C73F800AC4BFBD63262D4F2
:10E43E00137305D41E004BFBC21C32622B4BFBC464
:10E44E003A5E8CAF12F0AC8FD598F908B8D40F04A1
:10E45E003084D41E00493A93493A9349BA09AA899D
:10E46E00FF07A9D5D413730697731B4B3AA34B3AE8
:10E47E00A34B32A7D413733B4BB7D4213F32B21206
:10E48E00F0B7D5D4137341DD83C8DD99BA0FAAD482
:10E49E001CF740009AD4251E8AD4251EF820C01FD2
:10E4AE00B871227822739D738D52F881BDF898ADA4
:10E4BE005D72AD72BD7230D0D3BFE2967386738338
:10E4CE00A693B646B346A39F30E7D41CF70D0A00B9
:10E4DE00D512F0B8FA083A0ED4210A98F904B8D534
:10E4EE0052FF0A023B19FC37301BFC30C01FB873B9
:10E4FE00F6F6F6F6D4250F12F0FA0FC0250F22F815
:10E50E00235271D50BFBD7323CFB6D3A78D41D0DDF
:10E51E004BFBCCAE3249FB733A74A7F881B7477305
:10E52E00FB0D3A4D278773D41D0D1272A707F33AD0
:10E53E00678732712712305C87326E271230678EF2
:10E54E0030D38E30DED413732FD40F004B73D40F11
:10E55E000498FA043291D430FD4B49BF09FA80AFCA
:10E56E00309D1DDD6109FA80AF1DDDC4BF1989FF25
:10E57E0005A912F0FBC732C4FB0132CAFB0A32BF37
:10E58E00FB7332D2FB0132D7FB0332DDD41373108F
:10E59E009F32E030EE9F32EE8F30C09F32EE8F32E0
:10E5AE00EE30E09F3AE030EE8F3AE09F30C08F3A87
:10E5BE00EE0BFBC53AE61BF83DA61212F0B6D52BB4
:10E5CE002BD419BEF8A430E84932FE09FB80592934
:10E5DE00D5E2D3C843AD2252F881BF43AFFA8032A1
:10E5EE00144F1230018FFC80AF425F2F3001C034C8
:10E5FE0083E92989FC04AF99BF0FF4732F0F74734D
:10E60E002F0F74732F0F74593000E919191909FE61
:10E61E0073097E73097E73097E593000E919191941
:10E62E0009FD0073097D0073097D0073097D005992
:10E63E003000E92989FC04AF99BF0FF5732F0F75D0
:10E64E00732F0F75732F0F7559300009F65919096D
:10E65E00765919097659190976592929293001E966
:10E66E00191919F800737373593000E2221949739E
:10E67E0049730952E9F800734273427342593000EC
:10E68E00E91919199FF473097C0073097C00730949
:10E69E007C00593000C02BF3C029E1C029E8C02905
:10E6AE00EEC032D7C032DAC032DDC03404C0340816
:10E6BE00C03412C03421C03427C0342BC03432C011
:10E6CE00344AC03400C0340EC034188A73ACF88299
:10E6DE00B9BFF870A91DDD8EA8AABAC8181C0CFF08
:10E6EE002E320BC7FF023B5E52FF0A3343883220A5
:10E6FE001A09FAF03A3F1DDDE81DDD391DDD391D21
:10E70E00DD201DDD3902BF1DDDAF333F09FE3B0CA1
:10E71E00D413732CFF0B3A5E1C0CFF2B326DC7FF0C
:10E72E00023B5D326AFF033B5D52FF0A3B782C8849
:10E73E00C231DB2888328CD413732DF880BA1C0CAE
:10E74E00FF303B6652FF0A33661C0CFF303B8DAF29
:10E75E00FF0A338D1C02FEFEF4FE528FF4529A3ADB
:10E76E0094F880F438F7528AF5AA98DD341DDD1D31
:10E77E0087888C00B7B8BCF89FACD42CD78C32E706
:10E78E008AFE32E433D989FC04A98C731DDD8EF820
:10E79E0084ACF850591A8AFB8032CFD42CC830C4BE
:10E7AE008CA81202ACD4330330E48AFB8032E4D45A
:10E7BE002CC82A30D9D42FE612D212C031EBD41E77
:10E7CE0000F800AC191909DD0152DD9EBCF55CC0E4
:10E7DE000B330BFB0D328EFBC0328E98FADFB80B6B
:10E7EE00FBD732C1FB6D32C1FB0332A0FB76329BED
:10E7FE00FB733A4A1BD434D2D424848AFA7FAADD1E
:10E80E009B528AF73B3AAADDAC303F8AF5AADD80EF
:10E81E00AC8A32658CD41FB82A3040D40F0098FAD7
:10E82E0004325BD4310069D415C53061D431FED4C5
:10E83E00236389FF04A90BFBC23A77DD9BFA0732EB
:10E84E007FDDACD41FB8306AFB0F328EFB0E3A86DA
:10E85E0098F920B81B3001FBCE328ED413731E985C
:10E86E00FA203A96D424F998FADFB8D5D418F230B3
:10E87E00651B4BFBD63ABDD41E0019191909D41FBE
:10E88E00B889FF07A94BFBC232A6FB063265D4132B
:10E89E007325D41D0DF881BAF800AA4A52FB0D3229
:10E8AE006502D41FB830CA9BBC8BACD419BDA84B23
:10E8BE005C1C9B52DD83F33ADE8B520FF33ADE88FB
:10E8CE0052DD84F7BC33FCDD83FF01DD039CDD04E8
:10E8DE00D597320ADDB4B8D41373088C32031DDD1C
:10E8EE001D8A8E00AABA89AEFC04BEA91DDDD61DF6
:10E8FE00DDDF2D311DDDEEFE332D2C1A30238CFA8B
:10E90E00803A361C2A302D8EA91DDDD01DDDF42D4A
:10E91E0067D42DAD9EA91DDDCA8EA91DDDD01DDDCE
:10E92E00D92D67F880B79EA9D42DAD9EA91DDDCA3D
:10E93E00D433031DDDD01DDDE5D433001DDDD01D28
:10E94E00DDF42D6DD433001DDDF42D73D42DAD9E6D
:10E95E00A91DDDCAD433001DDDF42D79D42DAD9E55
:10E96E00A91DDDCAD433008A32BC9EA91DDD8EB826
:10E97E00F887A88AFE3BADF880B88AFD00AA8AFA0D
:10E98E00403AB7288AFE30AC8A59D42DAD1DDDF43D
:10E99E002D7FD42DA91DDDF42D85D433008CFF7071
:10E9AE0033D71DDD8EBCB7AC9EA91DDDCD8EA91251
:10E9BE00D2D51242B742AC30EF1242B842A838124A
:10E9CE004259194259194259194259292929C02621
:10E9DE00011DDD1D898A00AA97BAF800B71DDDF466
:10E9EE002D311DDDEEBF89FF04A99FFB01CE302F17
:10E9FE001A1DDDE51DDDF12D3189FC04A9D433038B
:10EA0E001DDDD01DDDE5D433001DDDD01DDDF42D63
:10EA1E0037D433001DDDF42D3DD42DAD1DDDF7D4DF
:10EA2E0033001DDDF42D43D42DAD1DDDF7D43300A1
:10EA3E001DDDF42D49D42DAD1DDDF7D433001DDDC4
:10EA4E00F42D4FD42DAD1DDDF7D433001DDDF42D87
:10EA5E0055D42DAD1DDDF7D433001DDDF42D5BD463
:10EA6E002DAD1DDDF7D433001DDDF42D61D42DAD9C
:10EA7E0089FC04A91DDDCAD433001DDDF42D31D46B
:10EA8E002DAD89FC04A91DDDCAD433008A32CD1DFB
:10EA9E00DDE51DDDF12D0D89FC04A9D42DA99A52B9
:10EAAE0097F3B7DD9C32DE1DDDF42D01D433031256
:10EABE00D2D50BFBB43AEF1B1B1B4BBA4BAA30F251
:10EACE00D424788ADD179A5F22F8235270D5F80085
:10EADE00C8F8FFBF1DDD1D898A8B8E00AE1E9FBA42
:10EAEE0097AA89FC04BBDD9C32211DDDF42D01D4D7
:10EAFE0033009A3A3F1DDDF42D071DDDEEFE33D5B2
:10EB0E0089FF04A997FB80B71DDDF42D0DD42DAD23
:10EB1E00F800B71DDDF42D0DD42DA91E9732421D20
:10EB2E00DDF42D0DD42DAD2E8EF67333671DDDF471
:10EB3E002D0DF880B7D42DAD1DDDE5D433001DDDD0
:10EB4E00D01DDDF42D13D433001DDDF42D19D42D7D
:10EB5E00AD1DDDF7D433001DDDF42D1FD42DAD1DFD
:10EB6E00DDF7D433001DDDF42D25D42DAD1DDDF7DD
:10EB7E00D433001DDDF42D2BD42DAD9BA91DDDCA84
:10EB8E00D433001DDDF42D31D42DAD12F0F63BC281
:10EB9E00F880B71DDDF42D071DDDEEFE3BD512D23C
:10EBAE001DDD8EB7ACD512D2D50BFBD132E8FBDC16
:10EBBE0032E5FBC03AEFF840C81B4BFC01DD3CD5FB
:10EBCE00D4137304E949F119F119F1292929C02641
:10EBDE00001DDD1D8B8E0097BBF800B789AEFC04BF
:10EBEE00BEA91DDDDF2DA3D433008CCEFA80324AB0
:10EBFE0009AB8CFD87332DDDB4B8D413730FAF8FF3
:10EC0E0032378BF6AB2F302E8CFB8032421DDD3926
:10EC1E002C303709FA7F59D42CD738AB1DDDD01DD7
:10EC2E00DDE5D433001DDDD01DDDF42D8BD4330096
:10EC3E009EA91DDDCA8EA91DDDD01DDDD92D919E8B
:10EC4E00A9D42DAD1DDDE51DDDF12D9D9EA9D4337D
:10EC5E000397FB80B79EA91DDDCAD42DAD1DDDF433
:10EC6E002D97D42DAD1DDDF7D42DA91DDDE58EA973
:10EC7E001DDDC79EA9D433031DDDF42D7FD42DAD2C
:10EC8E001C8C528BF4AC9B32C51DDDE51DDDF12DC8
:10EC9E00319EA9D4330312D2D51C1C1C1DDDE81DD8
:10ECAE00DD7A1DDD7A1DDD201DDDC43AE0BCACB77A
:10ECBE00D509FA8032E91DDD7A1C09FA403AF41DB5
:10ECCE00DD392C30E99C3AFA8C3ADFDDB4B8D41336
:10ECDE00730F007B477D1A88007368DB8BAB008156
:10ECEE006487ED00FF6B45ED6C75007167DAD059E6
:10ECFE00FF775B04DD14007C555551E0FF8040002A
:10ED0E00000000814000000000785DEBAE0BFF7B41
:10ED1E004236F70C007C57E0FD02FF7D4D188F4008
:10ED2E00007D6D1ED9DCFF7E48BFE3AE007E665EC1
:10ED3E0002E8FF7F55553EF500805A827B6C0080BD
:10ED4E004CAB580600807B117B4E00825C551D67D4
:10ED5E00008040000000008058B90A75007C46FA19
:10ED6E006FF90087576AE11300844FA30338008AB6
:10ED7E004D3F1CD400815C551DA098FB80B88C5271
:10ED8E0088F73BC81DDDD389FF04A91DDDE589FF8A
:10ED9E0004A91DDDC789FC04A988528CF7AFFF1E9C
:10EDAE0033F98F32DA1DDD7A2F30D1975298F33244
:10EDBE00E31DDD4B1DDD20975298F332F609FA80E4
:10EDCE0032F61DDD4B98B7C02CD789FF04A930F65B
:10EDDE001DDD1D8B8E009773B8F80AA789AEFC0453
:10EDEE00BE8C32419EA91DDD8EF884A8F850598C38
:10EDFE00FD9F3329D433031730138EA98CFF9C3318
:10EE0E0036D42CC82730298CFD9F32411DDD7A1C4B
:10EE1E003036F8FFBF1DDDAF12F0B7D4320CF881DB
:10EE2E00BBF8C9AB87FA80325F87FD00A7F80DC823
:10EE3E00F80B5B1B1BF800AF87FF0A1F33682FFC14
:10EE4E000A5B2B8F5B12D293B6F87CA6D512D2D565
:10EE5E00F8D3C8F8D67389FF04A909FA803AA38EAD
:10EE6E0032B22E1DDD398AFEAA9A7EBA8B7EAB9BFC
:10EE7E007EBB30899EA91DDD611A8A3A899A3A892C
:10EE8E001B30899EA91DDD613BC31A8A3AB29A3A9C
:10EE9E00B21B30B29EA9E9298A739A738B739B5960
:10EEAE00E21202A3C02FDDC033609873D434CFD4E6
:10EEBE002EE4C01BC998FA0432F6190929FA8032D9
:10EECE00F5D425F7F801D509FA8032F51DDD4B3062
:10EEDE00F31DDD1D8B8E00AEF804AB99BF89BEFF0E
:10EEEE0004BBAFA909FA8073321C1DDD4B9EA90924
:10EEFE00FA80322912F3731DDD4B09733A318EC637
:10EF0E0012381E0F59F8005F191F2B8B3A298E3AB3
:10EF1E0045129BA930749EA9F808AB1202F6523B1B
:10EF2E005B1DDD203B59D413730F9EA91DDD392BBC
:10EF3E008B3A4B2E8E3A479BA909FA803A5512020C
:10EF4E0032741DDD4B12D2D51DDD1D8A8B8E00BE97
:10EF5E00AEAAF81EAB89BAFF04BBA909FA807332B8
:10EF6E00931DDD4B09FAC03AA68B3A9F1212D2D5E9
:10EF7E002B2E1DDD3930939AA909FA8032B312F384
:10EF8E00731DDD4BF81EAB09FAC03AC98B3AC2D4D9
:10EF9E001373082B1E1DDD3930B69E32D39BA91D6F
:10EFAE00DD8E309B9ABEF800BBABBAC02E7F12022C
:10EFBE00329C1DDD4B309CF840BF1DDDAF09FA8041
:10EFCE0032FC1C9C32FFDDB4B8D413730F1DDD3937
:10EFDE0049FA7F5297F173495249E97342730273AA
:10EFEE00E28C59D54BFBD63A7F0BFBD73A7F877312
:10EFFE00D41D1A4BFBC23A7FD424812A8A730BFB91
:10F00E00C23A381BD42481303BF8FFAA1272F4ACFA
:10F01E00337FF3AFF0A7BF97BC4BFBC43A7F8A3266
:10F02E007B8F326D87AF47FB0D1F3A552F9FA78FF2
:10F03E00528CF7337B4C5717FB0D3A649FA747FB57
:10F04E000D327A2A8A3A6DF80D5717D59FA730766A
:10F05E00D41373193B9ACA0005F5E1000098968007
:10F06E00000F4240000186A000002710000003E8B8
:10F07E00000000640000000A000000011DDD1D8A72
:10F08E008800AAF882B8F8E0A8481A3AB82AF8E038
:10F09E00A896FB283ADA8A52DDB332DAF7AA3BE5B4
:10F0AE008A32DADDACD41FB82A30CF4832E2D41F10
:10F0BE00B830DA12D2D5DDB3AA08FB2D3AF6F82D08
:10F0CE00D41FB82A8A32E2F82AD41FB830F2F814C4
:10F0DE00C8F82B5298DD3402BF1DDD1D87888C00C9
:10F0EE00BC89529FA309A81DDD9A09FA80B88832FF
:10F0FE002709F980591DDD7A89FF04A909AC1DDDA8
:10F10E009A09FA80B78C323E09F980591DDD7A02D0
:10F11E00A946D4314AD42FE612D2D5A3C02DA9C008
:10F12E002DADC03300C03303C02AFDC02B00C02A52
:10F13E0000C02C00C02900C03365C02DFF98FA0412
:10F14E003A7DD4210A89FF04A9D4210A308189FF8E
:10F15E0004A90932D2D42EE973D431006389FC0498
:10F16E00A912F07332C31DDDE80932BAFD983BBA1D
:10F17E00AFFF1833AD1909F98059291DDD7AC3295E
:10F18E00062F8F3AAA1DDD7AF8FFCFF80012F27320
:10F19E0089FF04A9D430FD51D431006012F032D26F
:10F1AE00D425F798FA043ADAD41E20D512023AE89A
:10F1BE0098FA013AE8191930F5F8D2C8F8D357176A
:10F1CE00495717495717495717095717C0101EF8AF
:10F1DE0000BF09FA80AF32111DDD4B3011F8FFBFB1
:10F1EE0097AF1DDD1D888A8B8E00B8F881BBF8C0E5
:10F1FE00ABF80AA8F830BAF883AA89FC04BE8F329D
:10F20E0033F80DC8F80B5B1B9F323C8CC65B1B980A
:10F21E00AE9ABF8AAF9EA91DDDEB8FAA1DDD619E42
:10F22E00A91E334B1DDD202E8BFBC13A628E3A6335
:10F23E002730658E5B1B28883A3E12D2D5DDB05240
:10F24E004FBE0FAE023A7DD41DD9F801DD300EFB54
:10F25E000D3A851E30760BFBD73AC71B4B73D41E67
:10F26E00D5BF12F0AF8B739B738EAB9EBB8F739F0C
:10F27E0073D41D0D1272AEF0A8D420530BFBC23AFC
:10F28E00B31B30BC0BFB0D32BCD413731F8BAE9B68
:10F29E00BE1272BBF0AB30CAD41ABA4B52FBC2329A
:10F2AE007D2B8EDD329E5FD5F8F4C8F8FAC8F8F1E2
:10F2BE00AF191919220973290973290973290973B9
:10F2CE008FADC026018C73977330F18873987330AD
:10F2DE00F1F81FC8F833BF1DDD1D8A8B8E00BAAA48
:10F2EE00BBABAE89BE975298F3B78C3257529FA3E1
:10F2FE00883257FF81AC9C7F00BC8CF4AC9C7C00A8
:10F30E00BCC033B4883A3DDDB4B8D4137308FF8162
:10F31E003B48F5AC9C7F00305088FD81F4AC9C7C62
:10F32E0000BCF81EAEC02E8289FF04A91DDD8EB76B
:10F33E00AC12D2C02CD797326FDDB4B8D413730F82
:10F34E008C3A73D51DDD1D8E0089AEFC04BE1DDD0D
:10F35E00D01DDDE5281DDDD3D433031DDDF7D42DFF
:10F36E00AD2C9EA91DDDCA1DDDEE32AC8EA91DDDB4
:10F37E00E58EA91DDDC71DDDD09EA930841DDDCA19
:10F38E008EA912D2D5F804ABFE29097E2B32B873A2
:10F39E001E8B32C929097E2B30BE1DDD8E9EA98E95
:10F3AE0032E9F808AB1202FE523BDF1DDD209EA9AA
:10F3BE001DDD7A2B8B3AD52E30CE89FF04A9C033B2
:10F3CE0060D424789A528AFAF0F1CA24938ADD33F3
:10F3DE00D589FF04A943BF43AF4FB74FAC30328935
:10F3EE00FC04A943BF43AF302189FC04A992BF821C
:10F3FE00AF1F4FB84FA8303297B88CA899BF89AFBE
:10F40E00FC04A94F59194F59194F59194F59292908
:10F41E0029C02601F801C8F88130808C5288F53B4E
:10F42E00463A438952FF04AF99BFE94FF73B463A3C
:10F43E0043194FF73B7A3A77194FF73B7A3A7719D8
:10F44E000FF73B7AF63A77C8F801C8F881BF02A9E0
:10F45E009FC02600E222F8D37303FC2073F8DD73FD
:10F46E000352D22273F8F87303FC3073F8DD734342
:10F47E00FC1052D22273F8F873033A8913C0260196
:10F48E001212121202FB1732C102FB2132C4D41324
:10F49E00730AF810C8F804AF122F8F3AC7C0242A87
:10F4AE00F800C8F801AF4BFBD632DED41373058FCC
:10F4BE0032E6D41E0030E9D40F004BFBC43ADAD545
:10F4CE00FC305E1EF8005ED5F801C8F800DD1CD5D4
:10F4DE0073FC009E738E739F738F739B738B73F885
:10F4EE0080BFF802AF4FBE4FAE1F0F3A3C9EFEF6E6
:10F4FE0032363E3C3623F80CAF8EAB2B8B3A2A2F8E
:10F50E008F3A28FF003042363C3E3830253F42FFCE
:10F51E000037406072AB72BB72AF72BF72AEF0BE9C
:10F52E00D5D41CF70D0A524541445920544F20534F
:10F53E004156450D0A009F738F739E738E739B7396
:10F54E008B73F8FFABD4373DF803BFF803BE2E37ED
:10F55E00823085C036339E3A7D2F9F3A7AF881BE2F
:10F56E00F883AE0E7360BB1E0EABF89EAE0EF5BBEF
:10F57E00F883BEF800AE9BBFAFF6F6F6F6FC40BFC2
:10F58E00D4030D8FFA0FFC40BFD4030D9BBF8BAF7E
:10F59E00F6F6F6F6FC40BFD4030D8FFA0FFC40BF13
:10F5AE00D4030D3FD937D4C036339B3AE08BC236E5
:10F5BE00092B4EBF9B738B739FABD4373D6072ABE1
:10F5CE00F0BB9FAFF6F6F6F6FC40BFD4030D8FFAF4
:10F5DE000FFC40BFD4030DC035D2F800ABD4373D7D
:10F5EE00C03630F800ABD4373DF880BBF807ABF827
:10F5FE00005BF836BBF841AB4BBFD4030D9FCA3648
:10F60E0027D403376072AB72BB72AE72BE72AFF0AC
:10F61E00BFD50D0A505245535320414E59204B45EC
:10F62E005920544F20434F4E54494E55450D0A0014
:10F63E00D41CF70D0A524541445920544F204C4FCB
:10F64E0041440D0A009F738F739E738E739B738B51
:10F65E0073F8FFABD4373DF880BBF807ABF8015B0E
:10F66E00F881BB9BBEF883ABF89EAED403379FFEEA
:10F67E00FEFEFEAFD403379FFA0F528FF4BF9F5298
:10F68E000EF45B1B9FBED403379FFEFEFEFEAFD46F
:10F69E0003379FFA0F528FF4BF9F5BAEF883BBF810
:10F6AE0000AB3FE137D3F880BBF807ABF8005BC087
:10F6BE0037109E3AE88EC2373AD403379FFEFEFECD
:10F6CE00FEAFD403379FFA0F528FF4BF9B738B7329
:10F6DE009FABD4373D6072ABF0BB9F5B1B2EC03629
:10F6EE00D1F881BBF89EAB0B52F883AB025B1BF8D3
:10F6FE00115B02BBF80CABF8FF5B1B5B1BF8035BEB
:10F70E001BF8845B1BF80D5BC03633C036129B733F
:10F71E008B52F880BBF808AB0B3A5372ABF0BB8B35
:10F72E00526422D572ABF0BB8BD5F83FBBF8FFAB62
:10F73E000BFC01C203D21BF881BAF800AAF841BC37
:10F74E00F800AC4B5A1A2C9C3A72D42400F881BAA9
:10F75E00F800AAF8525A1AF8555A1AF84E5A1AF8C8
:10F76E000D5AC00565FFFFFFFFFFFFFFFFFFFFFF05
:10F77E00FFFFFFFFFFFFFFFFFFFFFFFFFFFFFFFF8B
:10F78E00FFFFFFFFFFFFFFFFFFFFFFFFFFFFFFFF7B
:10F79E00FFFFFFFFFFFFFFFFFFFFFFFFFFFFFFFF6B
:10F7AE00FFFFFFFFFFFFFFFFFFFFFFFFFFFFFFFF5B
:10F7BE00FFFFFFFFFFFFFFFFFFFFFFFFFFFFFFFF4B
:10F7CE00FFFFFFFFFFFFFFFFFFFFFFFFFFFFFFFF3B
:10F7DE00FF309D9773877387FAF0F6F6F6F6B787C4
:10F7EE00FA0FA797FCF6331D97FC30B7302397FF1F
:10F7FE0009FC40B787FCF6332E87FC30A7303487E0
:10F80E00FF09FC40A797ABD4030D87ABD4030D12B1
:10F81E0002A71202B7D5F80DABD4030DF80AABD47C
:10F82E00030DD597738773073260ABD4030D173072
:10F83E00561202A71202B7D50D0A46696C652053FF
:10F84E0061766564205375636365737366756C6C5E
:10F85E00790D0A000D0A526561647920746F205388
:10F86E004156452050726F6772616D0D0A00977395
:10F87E008773997389739B738B739F738F73E2F87E
:10F88E0081B8F800A8F881BAF883AA4AB90AA999EA
:10F89E005298F5B9995289F1C23A2ED43845F838B2
:10F8AE00B7F883A7D43852F8FF526422F803B7F89A
:10F8BE0003BD2D37ED9D3AE127973ADE30F0C03A81
:10F8CE002EF800B7BAF820AA995289F1C239CD990B
:10F8DE00CA390E89FAE03A0EF801BA89AA3011F83F
:10F8EE0000BA997389528AF5A912F80075B9F83AD7
:10F8FE00526422F83AABD4030D8AA7D438028A5246
:10F90E0097F4B764229852F841F5A7D4380298526A
:10F91E00F841F55297F4B7642288A7D4380288527A
:10F92E0097F4B76422F800A7D43802F8005297F47F
:10F93E00B7642208A7D43802085297F4B764221885
:10F94E002A8A3A6297FBFFFC01B797A7D438029731
:10F95E00526422D438459AFF01CA38F030CDF8FFF0
:10F96E00526422F880B72737C19EFEF632A136C107
:10F97E0030A33EC1973A95F800526422F880B7271B
:10F98E0037C19EFEF632BA36C130BC3EC1973AAE92
:10F99E00308DF838B7F867A7D43852C03A2EF80031
:10F9AE00B7AAF801BAF83A526422F83AABD4030D6A
:10F9BE008AA7D438028A5297F4B764229852F84133
:10F9CE00F5A7D438029852F841F55297F4B764224D
:10F9DE0088A7D43802885297F4B76422F801BAA7E0
:10F9EE00D438029A5297F4B7642297FBFFFC01B702
:10F9FE0097A7D4380297526422D43845C0398D72F5
:10FA0E0072AF72BF72AB72BB72A972B972A7F0B746
:10FA1E00D5FFFFFFFFFFFFFFFFFFFFFFFFFFFFFF12
:10FA2E00FFFFFFFFFFFFFFFFFFFFFFFFFFFFFFFFD8
:10FA3E00FFFFFFFFFFFFFFFFFFFFFFFFFFFFFFFFC8
:10FA4E00FFFFFFFFFFFFFFFFFFFFFFFFFFFFFFFFB8
:10FA5E00FFFFFFFFFFFFFFFFFFFFFFFFFFFFFFFFA8
:10FFDE00FF0D0A4D455A3138303252414D202532EF
:10FFEE002E33664D487A0D0A00696E66006E616E9C
:02FFFE00000001
:020000040001F9
:10000000000E816F57C584F558C585F559C586F52D
:100010005AC587F587AF14D0010E816F84C501F5ED
:1000200085C502F586C503F587C504F574EC8FF028
:1000300001C584F502C585F503C586F504C587F5B8
:10004000000E836F000E826FB7C571F5B8C572F5EB
:100050008151D8B40DD08151D8A404D0000E676F5F
:100060002B0E03D0000E676F2D0E666F66C581F5EF
:1000700084C501F585C502F586C503F587C504F578
:10008000B1EC8CF001040210D8A42CD005018151F0
:10009000D8B409D081C500F67107D8A07207000E48
:1000A000836F010E826F000E8225016E060E832182
:1000B000026EF70E036EFF0E046E3BEC8FF0FD0E2A
:1000C0007127FF0E722355C512F556C513F5000EA4
:1000D000146E060E156E71C516F572C517F565EC32
:1000E0008EF0120084C501F585C502F586C503F5BD
:1000F00087C504F5B1EC8CF001500210D8A42CD0C7
:1001000005018151D8B409D081C500F67107D8A086
:100110007207000E836F010E826F000E8225016E42
:10012000060E8321026EFB0E036EFF0E046E3BEC87
:100130008FF0FD0E7127FF0E722355C512F556C5BF
:1001400013F5000E146E060E156E71C516F572C508
:1001500017F565EC8EF01200000E0501886F000E99
:10016000896F800E8A6F3F0E8B6F000E706F000ECE
:100170006F6F84C501F585C502F586C503F587C592
:1001800004F5000E056E000E066E000E076E000EE2
:10019000086E20EC8EF0D8A00CD0BED073C588F5C8
:1001A00074C589F575C58AF576C58BF505016F4B64
:1001B000702B88C50FF589C510F58AC511F58BC55B
:1001C00012F5000E136E000E146E200E156E410E09
:1001D000166E55EC84F00FC573F510C574F511C596
:1001E00075F512C576F505017351845D016E745184
:1001F0008559026E75518659036E76518759046E82
:10020000A5EC8EF004BECAD704500310021004E11E
:10021000020E015CD8A0C2D773C528F574C529F5B4
:1002200075C52AF576C52BF584C52CF585C52DF544
:1002300086C52EF587C52FF549EC8CF0D8A0AED732
:1002400005018851845D016E89518559026E8A517C
:100250008659036E8B518759046EA5EC8EF004BE4F
:1002600008D004500310021043E1020E015CD8B024
:100270003FD088C584F589C585F58AC586F58BC5C7
:1002800087F54AD088C528F589C529F58AC52AF594
:100290008BC52BF5000E2C6E000E2D6E200E2E6ED3
:1002A000410E2F6E71EC87F028C588F529C589F5B8
:1002B0002AC58AF52BC58BF505016F07D8A07007F5
:1002C0008851845D016E89518559026E8A51865923
:1002D000036E8B518759046EA5EC8EF004BEC9D70E
:1002E00004500310021004E1020E015CD8A0C1D733
:1002F00084C528F585C529F586C52AF587C52BF55A
:1003000088C52CF589C52DF58AC52EF58BC52FF529
:1003100049EC8CF0D8A0B6D75BC569F569C56AF51C
:100320000501BABF05D0B9C562F5BAC563F504D0F9
:10033000000E636F060E626F62C56DF563C56EF5E4
:100340006D4B6E2B660E6A19D8A416D070AF0CD008
:10035000000E886F000E896F800E8A6F3F0E8B6FC4
:10036000000E706F000E6F6F670E6919D8B404D05D
:100370006F516D2770516E23000E786F000E776FEE
:1003800084C579F585C57AF586C57BF587C57CF585
:1003900088C573F589C574F58AC575F58BC576F57D
:1003A0007BD079C528F57AC529F57BC52AF57CC5AA
:1003B0002BF588C52CF589C52DF58AC52EF58BC57D
:1003C0002FF571EC87F028C541F529C542F52AC5FE
:1003D00043F52BC544F5D5EC8AF041C57DF542C502
:1003E0007EF543C57FF544C580F57DC501F57EC525
:1003F00002F57FC503F580C504F517EC8DF001C546
:100400006BF502C56CF579C528F57AC529F57BC56C
:100410002AF57CC52BF57DC513F57EC514F57FC582
:1004200015F580C516F588C50FF589C510F58AC57F
:1004300011F58BC512F555EC84F00FC52CF510C5E0
:100440002DF511C52EF512C52FF5F6EC8EF028C549
:1004500079F529C57AF52AC57BF52BC57CF588C5C4
:1004600028F589C529F58AC52AF58BC52BF5000E17
:100470002C6E000E2D6E200E2E6E410E2F6E71EC26
:1004800087F028C588F529C589F52AC58AF52BC5C1
:100490008BF50501774B782B6D51775D7851800A8C
:1004A0005C6E6E51800A5C58D8A07BD788C50FF56A
:1004B00089C510F58AC511F58BC512F5000E136EAE
:1004C000000E146EA00E156E400E166E55EC84F0E4
:1004D0000FC57DF510C57EF511C57FF512C580F5F8
:1004E00079C528F57AC529F57BC52AF57CC52BF594
:1004F0007DC52CF57EC52DF57FC52EF580C52FF564
:1005000049EC8CF0D8B003D0000E050118D079C5A5
:1005100001F57AC502F57BC503F57CC504F57DC5FB
:1005200005F57EC506F57FC507F580C508F520EC05
:100530008EF0D8A00BD005016BB108D0000E7D6FF6
:10054000000E7E6F000E7F6F000E806F84C501F578
:1005500085C502F586C503F587C504F57DC505F596
:100560007EC506F57FC507F580C508F5EBEC85F07F
:1005700001C579F502C57AF503C57BF504C57CF59F
:1005800079C528F57AC529F57BC52AF57CC52BF5F3
:10059000000E136E000E146E200E156E410E166EB8
:1005A00073C50FF574C510F575C511F576C512F54F
:1005B00055EC84F00FC52CF510C52DF511C52EF5A1
:1005C00012C52FF549EC8CF0D8A024D005016F4B53
:1005D000702B73C50FF574C510F575C511F576C58B
:1005E00012F5000E136E000E146E200E156E410EE5
:1005F000166E55EC84F00FC573F510C574F511C572
:1006000075F512C576F5660E05016A19D8A402D0F3
:100610006D4B6E2B73C588F574C589F575C58AF564
:1006200076C58BF56FC560F570C561F5000E0501E7
:10063000686F000E656F000E646F000E786F000E1D
:10064000776FCDD079C528F57AC529F57BC52AF510
:100650007CC52BF588C52CF589C52DF58AC52EF5E9
:100660008BC52FF571EC87F028C541F529C542F5FA
:100670002AC543F52BC544F5D5EC8AF041C57DF577
:1006800042C57EF543C57FF544C580F57DC501F5BE
:100690007EC502F57FC503F580C504F517EC8DF026
:1006A00002BE06D0025013E10A0E015CD8B00FD092
:1006B0007DC501F57EC502F57FC503F580C504F54E
:1006C00017EC8DF001C56BF502C56CF505D0000E79
:1006D00005016C6F090E6B6F05016851D8B461AFED
:1006E00020D0000E8225D96E060E8321DA6E2E0EE2
:1006F000DF6E824B832B7107D8A07207010E686FE3
:1007000010D0000E8225D96E060E8321DA6E300ECF
:10071000DF6E824B832B7107D8A072076407D8A0C5
:10072000650764516511D8A4ECD7000E8225D96EF7
:10073000060E8321DA6E6B51300FDF6E824B832BF6
:100740007107D8A0720779C528F57AC529F57BC548
:100750002AF57CC52BF57DC513F57EC514F57FC53F
:1007600015F580C516F588C50FF589C510F58AC53C
:1007700011F58BC512F555EC84F00FC52CF510C59D
:100780002DF511C52EF512C52FF5F6EC8EF028C506
:1007900079F529C57AF52AC57BF52BC57CF588C581
:1007A00028F589C529F58AC52AF58BC52BF5000ED4
:1007B0002C6E000E2D6E200E2E6E410E2F6E71ECE3
:1007C00087F028C588F529C589F52AC58AF52BC57E
:1007D0008BF505016007D8A06107774B782B6D5129
:1007E000775D7851800A5C6E6E51800A5C58D8B093
:1007F00008D083BF27D7835104E14B0E825DD8A078
:1008000021D7000E786F4F0E776F000E7725D96EC7
:10081000060E7821DA6EDF6A000E5C6E060E5D6EE3
:1008200082515C5E83515D5A77515C24016E785130
:100830005D20026E000E036E060E046E82C505F585
:1008400083C506F519EC8FF08251775D826F835175
:100850007859836F8151D8B402D0010E01D0000EB7
:10086000776F786B8151D8B40BD08207D8A08307FB
:10087000000E8225D96E060E8321DA6E81C5DFF463
:100880007751715F7851725B55C512F556C513F5F6
:10089000000E8225146E060E8321156E71C516F5A5
:1008A00072C517F565EC8EF012001250800B1B6EAE
:1008B00012501224216E11BE21802150D8B40DD0C7
:1008C0002128D8A408D0000E0F6E000E106E000E66
:1008D000116E000E126E118E08D0000E0F6E000EFB
:1008E000106E000E116E000E126E1650800B1B1A49
:1008F000165016241C6E15BE1C801C50D8B40DD08A
:100900001C28D8A408D0000E136E000E146E000E22
:10091000156E000E166E158E08D0000E136E000EAA
:10092000146E000E156E000E166E1C50D8B403D057
:100930002150D8A409D0000E0F6E000E106E000ECC
:10094000116E000E126E120015500F02F3C426F540
:10095000F4C427F526501D6E1E6A1F6A206A2750B0
:10096000226E236A246A256A14501002F3C426F505
:10097000F4C427F526501D26000E1E221F22202219
:1009800027502226000E2322242225221350110252
:10099000F3C426F5F4C427F526501D26000E1E22AA
:1009A0001F22202227502226000E23222422252225
:1009B0001FC520F51EC51FF51DC51EF51D6A135068
:1009C0001002F3C426F5F4C427F526501D2627503F
:1009D0001E22000E1F22000E202214500F02F3C40C
:1009E00026F5F4C427F526501D2627501E22000E9A
:1009F0001F22000E20221FC520F51EC51FF51DC594
:100A00001EF51D6A13500F02F3C426F5F4C427F532
:100A100026501D2627501E22000E1F22000E2022C7
:100A200015501002F3C426F5F4C427F526502226EB
:100A300027502322000E2422000E252214501102DA
:100A4000F3C426F5F4C427F5265022262750232286
:100A5000000E2422000E252215501102F3C426F5A3
:100A6000F4C427F52650176E2750186E196A1A6AB3
:100A700019C51AF518C519F517C518F5176A1750CD
:100A8000222618502322195024221A5025222050A1
:100A90002226000E2322242225221FC520F51EC552
:100AA0001FF51DC51EF51D6A1C5021C517F5186AD6
:100AB0001726000E1822820E1724266EFF0E18200D
:100AC000276E0FD0D890223623362436253620BE06
:100AD0002280D8901D361E361F3620362606D8A016
:100AE000270624AEEFD7000E1C6E20AE17D0FF0EE7
:100AF0001D14176EFF0E1E14186EFF0E1F14196EB4
:100B00007F0E20141A6E1750181019101A10D8B42E
:100B100003D0010E1C6E02D022B0FBD71C50D8B4FB
:100B20001FD0010E2226000E23222422252225A0DA
:100B300017D022C517F523C518F524C519F525C505
:100B40001AF51A341A3219321832173217C522F52B
:100B500018C523F519C524F51AC525F5264A272AEF
:100B600027BE0DD0275003E12628D8A008D0000EBC
:100B7000226E000E236E800E246E7F0E20D027BEC4
:100B800005D027500EE12604D8B00BD0000E226EFF
:100B9000000E236E000E246E000E256E000E1B6EDE
:100BA0000FD026C521F5FF0E2216FF0E23167F0E4D
:100BB0002416000E251621B0248ED8902130256EE3
:100BC0001B50251222C50FF523C510F524C511F5BC
:100BD00025C512F512000450800B0D6E045004243C
:100BE0000F6E03BE0F800F50D8B40DD00F28D8A4BD
:100BF00008D0000E016E000E026E000E036E000E95
:100C0000046E038E06D0000E016E000E026E000E02
:100C1000036E000E046E0850800B0E6E0D500E1801
:100C2000D8A40D8C085008240E6E07BE0E800E50FE
:100C3000D8B40DD00E28D8A408D0000E056E000E32
:100C4000066E000E076E000E086E078E06D0000EB0
:100C5000056E000E066E000E076E000E086E0F5039
:100C60000E5CD8B022D00DAC02D0800E0D1A0FC58C
:100C700010F50EC50FF510C50EF501C510F505C52B
:100C800001F510C505F502C510F506C502F510C53C
:100C900006F503C510F507C503F510C507F504C52E
:100CA00010F508C504F510C508F5000E106E0F50BC
:100CB0000EC509F50A6A095E000E0A5A0ABE2CD052
:100CC0000A5004E11A0E095CD8A026D00150021087
:100CD00003100410D8B402D0010E01D0000E106E23
:100CE000000E016E000E026E000E036E000E046E0A
:100CF0000EC50FF515D010A005D0D8901030010901
:100D0000106E02D0D890103201B0108E043404322C
:100D10000332023201320F2A0E500F5CD8A0EBD7FB
:100D20000DBC28D00F50D8A409D0000E016E000EC3
:100D3000026E000E036E000E046E120005500126B6
:100D400006500222075003220850042204A071D04A
:100D500010A005D0D89010300109106E02D0D890A4
:100D6000103201B0108E04340432033202320132E8
:100D70000F2A5FD00550015C0650025807500358F7
:100D80000450800A096E0850800A0958D8B025D04E
:100D90000150055C096E025006580A6E0350075850
:100DA0000B6E045008580C6EFF0E0924016EFF0EE6
:100DB0000A20026EFF0E0B20036EFF0E0C20046E45
:100DC000800E0D1A106C1050D8A40FD0010E012601
:100DD000000E02220322042208D00550015E0650B4
:100DE000025A0750035A0850045A015002100310C7
:100DF0000410D8A41CD01050D8A419D0000E016E35
:100E0000000E026E000E036E000E046E1200D890EB
:100E1000013602360336043610BE018010A002D01F
:100E2000D88001D0D89010360F50D8A40F0603AE4A
:100E3000EED7000E0E6E10AE0BD010C509F57F0E6A
:100E40000916D8B403D0010E0E6E02D001B0FBD744
:100E50000E50D8B420D0010E0126000E022203222B
:100E6000042204A018D001C509F502C50AF503C57E
:100E70000BF504C50CF50C340C320B320A32093276
:100E800009C501F50AC502F50BC503F50CC504F546
:100E90000F28D8A40F2A0F28D8B403D00F50D8A4F5
:100EA0000DD0000E016E000E026E000E036E000EDD
:100EB000046E0F50D8A402D0000E0D6E0FA002D009
:100EC000038E01D0039ED8900F30046E0DBE048EA9
:100ED00001C501F502C502F503C503F504C504F516
:100EE00012002B50800B386E2B502B243F6E2ABEE5
:100EF0003F803F50D8B40DD03F28D8A408D0000E72
:100F0000286E000E296E000E2A6E000E2B6E2A8EA1
:100F100006D0000E286E000E296E000E2A6E000EFE
:100F20002B6E2F50800B381A2F502F24406E2EBE60
:100F300040804050D8B40DD04028D8A408D0000E2E
:100F40002C6E000E2D6E000E2E6E000E2F6E2E8E4D
:100F500006D0000E2C6E000E2D6E000E2E6E000EB2
:100F60002F6E2C502D102E102F10D8A417D0000E3D
:100F7000286E000E296E000E2A6E000E2B6E800E5B
:100F80002A127F0E2B1238502B1228C528F529C59E
:100F900029F52AC52AF52BC52BF512003F50D8A4F8
:100FA00009D0000E286E000E296E000E2A6E000E6B
:100FB0002B6E120040503FC530F5316A305E000E96
:100FC000315A7F0E3024396E000E31203A6E28C51A
:100FD00034F529C535F52AC536F52BC537F5000E8C
:100FE000286E000E296E000E2A6E000E2B6E000E6B
:100FF0003B6E000E3C6E000E3D6E000E3E6E000E0F
:10100000406E28D04050D8B411D0D8903436353600
:1010100036363736D890283629362A362B363EBE15
:101020002880D8903B363C363D363E362C50345CDA
:101030002D5035582E5036582F503758D8A009D03B
:101040003E8C2C50345E2D50355A2E50365A2F502F
:10105000375A402A190E4064D5D73450351036100F
:101060003710D8B411D03B800FD0D890283629360D
:101070002A362B363EBE2880D8903B363C363D364D
:101080003E363906D8A03A062AAEEFD7000E406E9B
:101090003EAE17D0FF0E3B14306EFF0E3C14316E87
:1010A000FF0E3D14326E7F0E3E14336E3050311001
:1010B00032103310D8B403D0010E406E02D028B0E5
:1010C000FBD74050D8B41FD0010E2826000E29228D
:1010D0002A222B222BA017D028C530F529C531F59F
:1010E0002AC532F52BC533F533343332323231323F
:1010F000303230C528F531C529F532C52AF533C55A
:101100002BF5394A3A2A3ABE10D03A5003E1392831
:10111000D8A00BD0000E3A6E3968000E286E000E73
:10112000296E000E2A6E000E2B6E3ABE05D03A5084
:1011300011E13904D8B00ED0000E3A6E000E396EAF
:10114000000E286E000E296E000E2A6E000E2B6E09
:10115000000E386E39C53FF53FA002D02A8E01D06F
:101160002A9ED8903F302B6E0ED7080E0001B16F2B
:101170000401189BC19AC99A1899C188C9983F0E51
:1011800002011C6F04011897C996990E436F990EBE
:10119000446F010E456F000E476F4691468B468F98
:1011A0001891C180C990089FBF8EC79E089DBF8CB3
:1011B000C79C0095BE84C694009BBE8AC69A0899B7
:1011C0000989C78808970987C78600970187C68657
:1011D000089B098BC78A189F198FC98E189D198D76
:1011E000C98C00910181C68000930183C682089159
:1011F0000981C78000990189C688000E106F000E12
:10120000C06E000EC86E08950985C7841895C18404
:10121000C994010E0201D56FA00ED46FD189D18B74
:101220000401009FC68E070E0201766F0401009D27
:10123000BE8CC69C260E0201076FD28F0D0E646F06
:10124000020E0001D56F000ED66F030ED86F7F0E11
:10125000D96F7F0EDA6F7F0EDB6F020EDC6F040E2C
:10126000DD6F100EDE6F400EDF6F000ED76F820E47
:10127000D66F030E02011B6F6A0EE82EFED700D058
:10128000C1986A0EE82EFED700D0000E0401106F40
:10129000000EC06E000EC86E000E0501AE6F000E8F
:1012A000AD6FDF0EAD25F66EBF0EAE21F76EF86A9C
:1012B000000EF8220800F5C4C0F4C190D1ACFED7EE
:1012C000C180D1BCFED70501AD4BAE2B400EAE5D4B
:1012D000D8A0E7D7C86804011169C188000E136E51
:1012E000240E146EF40E156E410E166E4351016EEF
:1012F0004451026E4551036E046A000EA9EC8BF056
:1013000001C50FF502C510F503C511F504C512F5A9
:1013100055EC84F00FC528F510C529F511C52AF53F
:1013200012C52BF5000E2C6E240E2D6E740E2E6E33
:10133000490E2F6E71EC87F028C5A9F529C5AAF5CD
:101340002AC5ABF52BC5ACF5DF0E0501A16FFF0E6D
:10135000A26FA9C5A3F5AAC5A4F5ABC5A5F5ACC5F3
:10136000A6F5A1EC8FF0550E0401596FAA0E596F26
:101370005991080E5D6F000E5E6F000E5F6F550E87
:10138000596FAA0E596F5981D68EC18AFFD78EC563
:10139000D9F48FC5DAF4DEC4F6F4DDC4F7F4000E38
:1013A000F86E0800F550250AD8A4EAD08EC5D9F405
:1013B0008FC5DAF4DE2A000EDD22000EB86F000EB3
:1013C000B76FB7C5BBF5B969BA698EC507F58FC5E3
:1013D00008F590C509F591C50AF574EC8DF007C5BF
:1013E000B7F508C5B8F50501B8AF05D0BB81B76D35
:1013F000B81FD8B0B82B8EC5D9F48FC5DAF4DEC4C7
:10140000F6F4DDC4F7F4000EF86E0800F5502E0A6D
:10141000D8A415D08EC5D9F48FC5DAF4DE2A000E13
:10142000DD228EC507F58FC508F590C509F591C574
:101430000AF574EC8DF007C5B9F508C5BAF58EC587
:10144000D9F48FC5DAF4DEC497F5DDC498F597C5F5
:10145000F6F498C5F7F4000EF86E0800F5C496F59A
:1014600008D0974B982B18D06C0E01D0000E966FB9
:1014700013D0050196515E6E5F6A5F50000AD8A4D2
:10148000F5D75E504C0AD8B4ECD72A0AD8B4ECD7BA
:101490000A0AD8B4E6D7EAD797C5F6F498C5F7F4A0
:1014A000000EF86E0800F550660AD8B41AD060D065
:1014B00090C5D9F491C5DAF4DFC45EF5040EDE26DA
:1014C000DFC45FF5000EDD225EC5D9F45FC5DAF436
:1014D000DEC492F5DEC493F5DEC494F5DEC495F562
:1014E0000ED096515E6E5F6A5F50000AD8A407D096
:1014F0005E504C0AD8B4DCD7200AD8B4D9D7010E34
:1015000097255E6E000E98215F6E8EC5D9F48FC54B
:10151000DAF45EC5DEF45FC5DDF418D08CC555F590
:101520008DC556F592C557F593C558F594C559F52F
:1015300095C55AF597C5F6F498C5F7F4000EF86E00
:101540000800F5C45BF500EC80F0120097C5F6F4D6
:1015500098C5F7F4000EF86E0800F5505E6E5F6AED
:101560005F50000AD8A404D05E50660AD8B4D6D71B
:101570008EC5D9F48FC5DAF4DE2A000EDD22120002
:101580008EC5D9F48FC5DAF4DEC4F6F4DDC4F7F401
:10159000000EF86E0800F550026E036A8CC504F563
:1015A0008DC505F5D0EC8DF0E3D7AFC551F5B0C5CD
:1015B00052F5B1C553F5B2C554F541C551F542C513
:1015C00052F543C553F544C554F5810E456EFF0EE3
:1015D000466E51C547F552C548F553C549F554C542
:1015E0004AF5180E05D0D8904A324932483247326F
:1015F000E82EF9D7475045244F6E000E4620506E16
:1016000050BE0FD0505004E1170E4F5CD8A009D047
:1016100041C541F542C542F543C543F544C544F5CE
:10162000120050BE5BD04FC545F5FF0E466EFF0E53
:10163000476E7F0E486E000E496E456601D007D09A
:1016400049344932483247324632452EF6D746C5EC
:101650004BF547C54CF548C54DF549C54EF54B50C2
:101660005114456E4C505214466E4D505314476EF3
:101670004E505414486E4550461047104810D8B488
:10168000C7D751C545F552C546F553C547F554C5AD
:1016900048F5200E05D0D8904832473246324532C0
:1016A000E82EF9D74550D8B408D04B5051264C50AD
:1016B00052224D5053224E5054224B1C456E4C1C0E
:1016C000466E4D1C476E4E1C486E45505116465096
:1016D0005216475053164850541632D051C545F54E
:1016E00052C546F553C547F554C548F5200E05D0FB
:1016F000D8904832473246324532E82EF9D745660F
:1017000008D0000E516E000E526E000E536E000E89
:1017100016D0D8905134456E5234466E5334476ECD
:101720005434486E4550461047104810D8B408D07D
:10173000000E516E000E526E800E536EBF0E546E30
:1017400051C541F552C542F553C543F554C544F55D
:101750001200096E0950D8A404AE1AD001C505F5CF
:1017600002C506F503C507F504C508F5051E061EE6
:10177000071E081E052A000E06220722082205C59C
:101780000BF506C50CF507C50DF508C50EF508D017
:1017900001C50BF502C50CF503C50DF504C50EF525
:1017A0000150021003100410D8A409D0000E016EDD
:1017B000000E026E000E036E000E046E1200960EF6
:1017C0000A6E06D00A2AD8900E320D320C320B3235
:1017D000000E0B14056E000E0C14066E000E0D1498
:1017E000076EFE0E0E14086E055006100710081046
:1017F000D8B40DD0E7D70A2A010E0B26000E0C2212
:101800000D220E22D8900E320D320C320B32000E09
:101810000B14056E000E0C14066E000E0D14076EF0
:10182000FF0E0E14086E0550061007100810D8B4ED
:1018300007D0E1D70A06D8900B360C360D360E3697
:101840000DBE03D0020E0A60F5D70AA00D9ED890F7
:101850000A320AC505F5066A076A086A05C508F569
:10186000076A066A056A05500B1206500C120750EB
:101870000D1208500E120950D8A404AE01D00E8EDD
:101880000BC501F50CC502F50DC503F50EC504F534
:101890001200000E2814306E000E2914316E800ED6
:1018A0002A14326E7F0E2B14336E305031103210EA
:1018B0003310D8A408D0000E286E000E296E000E3A
:1018C0002A6E000E2B6E000E2C14306E000E2D149E
:1018D000316E800E2E14326E7F0E2F14336E305008
:1018E000311032103310D8A408D0000E2C6E000E28
:1018F0002D6E000E2E6E000E2F6E2BAE09D0286CB2
:10190000291ED8B0292A2A1ED8B02A2A800E2B5682
:101910002FAE09D02C6C2D1ED8B02D2A2E1ED8B07B
:101920002E2A800E2F56000E281A000E291A000E9D
:101930002A1A800E2B1A000E2C1A000E2D1A000ED9
:101940002E1A800E2F1A2C50285C2D5029582E50FC
:101950002A582F502B58D8B002D0D8901200D880D7
:101960001200B3C50BF5B4C50CF5B5C50DF5B6C57C
:101970000EF501C50BF502C50CF503C50DF504C543
:101980000EF50BC505F50CC506F50DC507F50EC51D
:1019900008F5180E05D0D890083207320632053205
:1019A000E82EF9D70550096E0A6A09500A10D8A422
:1019B00019D0D8900B34056E0C34066E0D34076EBA
:1019C0000E34086E0550061007100810D8A405D074
:1019D000000E026E020E016E1200000E026E030E69
:1019E000016E120009280A10D8A41CD00BC505F5F9
:1019F0000CC506F50DC507F50EC508F5090ED890FE
:101A00000536063607360836E82EF9D70550061093
:101A100007100810D8A402D0010E01D0000E016EEC
:101A2000026A1200000E026E040E016E12000334F0
:101A300004340A6E0A50D8A409D0000E016E000EBC
:101A4000026E000E036E000E046E120001C505F555
:101A500002C506F503C507F504C508F5200E05D037
:101A6000D8900832073206320532E82EF9D70550F1
:101A7000096E038EFF0E0116FF0E0216FF0E0316EF
:101A8000000E0416960E0A5E0AAE0DD00A50800AA9
:101A9000970FD8A0D2D7D890043203320232013245
:101AA0000A3EF9D70DD01F0E0A6407D0C6D7D890CA
:101AB00001360236033604360A060A50D8A4F7D790
:101AC0000950D8B408D0041E031E021E016C000E7B
:101AD00002220322042201C501F502C502F503C555
:101AE00003F504C504F51200000E0F6E000E0E6E15
:101AF00007C5D9F408C5DAF4DEC4F6F4DDC4F7F49A
:101B0000000EF86E0800F5502A0AD8A433D007C595
:101B1000D9F408C5DAF4DE2A000EDD2209C5D9F4AD
:101B20000AC5DAF4DFC40BF5020EDE26DFC40CF5BD
:101B3000000EDD220BC5D9F40CC5DAF4DEC40EF5B7
:101B4000DDC40FF528D00EC501F50FC502F5000E56
:101B5000046E0A0E036EB4EC8FF00D5001240E6E6D
:101B6000000E02200F6E07C5D9F408C5DAF4DE2A8C
:101B7000000EDD2207C5D9F408C5DAF4DEC4F6F498
:101B8000DDC4F7F4000EF86E0800F550D00F0D6EAE
:101B9000090E0D64D8D70EC507F50FC508F512005C
:101BA00004500510D8B404D004500510D8A404D0B3
:101BB0000250C7EC8FF0120020EE0AF00450D92634
:101BC0000550DA22DE50DE10D8B416D020EE0AF02E
:101BD0000450D9260550DA2210EE03F00450E12615
:101BE0000550E222DE50E65CE650800A0A6EDE50C6
:101BF000800A0A58D8B0120020EE03F00450D9260B
:101C00000550DA22DEC406F5DDC407F504C5D9F4B3
:101C100005C5DAF4DEC408F5DDC409F5065008246C
:101C2000D96E07500920DA6E02C5DFF420EE03F00A
:101C30000450D9260550DA22DE2A000EDD221200D9
:101C4000000E0114096E000E02140A6E800E0314B9
:101C50000B6E7F0E04140C6E09500A100B100C1042
:101C6000D8A408D0000E016E000E026E000E036EA6
:101C7000000E046E000E0514096E000E06140A6EA6
:101C8000800E07140B6E7F0E08140C6E09500A109C
:101C90000B100C10D8A408D0000E056E000E066EB6
:101CA000000E076E000E086E055001180AE106507E
:101CB000021807E10750031804E108500418D8B4CB
:101CC00002D0D8901200D8801200BBA10AD014C54F
:101CD0000BF515C50CF512C50DF513C50EF558EC31
:101CE0008FF017BE05D016C51BF517C51CF504D01F
:101CF000000E1C6E000E1B6E000E1A6E000E196E8A
:101D00000CD0000E036E200E026E12C504F513C532
:101D100005F5D0EC8DF0194A1A2A1B50195C1A509F
:101D2000800A186E1C50800A1858D8A0EAD70501FE
:101D3000BBB1120014C50BF515C50CF512C50DF598
:101D400013C50EF558EC8FF0120004BE07D00450F6
:101D5000031002101DE10104D8B01AD001C505F529
:101D600002C506F503C507F504C508F5051E061EE0
:101D7000071E081E052A000E06220722082205C596
:101D800001F506C502F507C503F508C504F51200FF
:101D900001C501F502C502F503C503F504C504F547
:101DA00012009BC59FF59CC5A0F50FD099C58CF579
:101DB0009AC58DF59F0E05018E6F050E8F6F9DC51F
:101DC00090F59EC591F5C7EC89F09FC5F6F4A0C5C6
:101DD000F7F4000EF86E0800F5500009D8A4E6D715
:101DE000000E05019A6F000E996F1200000E2C1A5A
:101DF000000E2D1A000E2E1A800E2F1A28C501F57E
:101E000029C502F52AC503F52BC504F52CC505F532
:101E10002DC506F52EC507F52FC508F5EBEC85F0A9
:101E200001C528F502C529F503C52AF504C52BF51A
:101E3000120003C509F504C50AF501C507F502C579
:101E400008F510D009C5D9F40AC5DAF4DF500B6ED5
:101E5000094A0A2A07C5D9F408C5DAF40BC5DFF424
:101E6000074A082A0506D8A006060528EBE1062839
:101E7000D8B41200E7D703C505F504C506F501C5BA
:101E800007F502C508F505C5F6F406C5F7F4054AD9
:101E9000062A000EF86E07C5D9F408C5DAF4074A19
:101EA000082A0800F5C4DFF4DF50D8B41200EBD7DD
:101EB000000E116E000E106E0BD00FC502F5036AF6
:101EC0000DC504F50EC505F5D0EC8DF0104A112AAC
:101ED00010500B24D96E11500C20DA6EDF500F6EAB
:101EE0000F50D8B41200E9D70150021003100410AB
:101EF000D8B408D0000E011A000E021A000E031A00
:101F0000800E041A01C501F502C502F503C503F5EB
